:0400000033EF01F0E9
:100008005282E1CF24F0E2CF25F0F3CF26F0F4CFEF
:1000180027F0F6CF28F0F7CF29F0F8CF2AF0F5CF60
:100028002BF09EA01AEF00F01CEF00F04BEF00F051
:100038009E90000ECF6E000ECE6E0001F905D8B46A
:1000480028EF00F02AEF00F033EF00F0020EF91964
:10005800D8A431EF00F033EF00F041EF00F0432A6D
:10006800380E43643AEF00F03CEF00F04BEF00F03D
:10007800436AC8EC1EF04BEF00F0070EF919D8A43C
:1000880048EF00F04AEF00F04BEF00F0897AF0B04B
:1000980050EF00F052EF00F059EF00F0F0A257EFE8
:1000A80000F059EF00F021EF01F0304A312AF0A2B8
:1000B80060EF00F062EF00F0CDEF00F0210E305C51
:1000C800030E3158D8A06BEF00F06DEF00F0CDEFC4
:1000D80000F0F092010E396E010E386E000E316E8E
:1000E800000E306EA9EF00F0010EF96F000EF36FED
:1000F800000EF26FFA51D8A484EF00F086EF00F0FA
:1001080005EF01F0C8EC1EF005EF01F0020EF96FE3
:10011800000EF36F000EF26F05EF01F0030EF96F9A
:10012800000EF36F000EF26F010E026E0250D8A49B
:10013800030E036E39EC1BF005EF01F0040EF96FA6
:1001480005EF01F0F96B05EF01F00001F951000A24
:10015800D8B478EF00F0010AD8B48AEF00F0030AA7
:10016800D8B492EF00F0010AD8B4A2EF00F0070A61
:10017800D8B4A6EF00F0010AD8B4A6EF00F0030A3D
:10018800D8B4A6EF00F0010AD8B4A6EF00F005EF46
:1001980001F0F0A0D2EF00F0D4EF00F005EF01F08D
:1001A800210E305C030E3158D8A0DDEF00F0DFEFF0
:1001B80000F005EF01F0F090396A010E386E000E7C
:1001C800316E000E306EF5EF00F0050EF96F05EF99
:1001D80001F0060EF96F05EF01F0070EF96F05EF54
:1001E80001F00001F951040AD8B4E9EF00F0010A5E
:1001F800D8B4EDEF00F0030AD8B4F1EF00F005EF42
:1002080001F00001FA05D8A40CEF01F00EEF01F09F
:100218001FEF01F0315007E10A0E305CD8B017EF3C
:1002280001F019EF01F01FEF01F00FEC12F0BCEC38
:100238001CF021EF01F0010EFA6F2BC0F5FF2AC068
:10024800F8FF29C0F7FF28C0F6FF27C0F4FF26C033
:10025800F3FF25C0E2FF24C0E1FF5292110019EF1D
:020268001DF087
:10030000005354415254200D0A00454E44200D0A1A
:0F03100000252E326600696E66006E616E000079
:100320000001BD6B95C0BEF096C0BFF097C0C0F095
:1003300098C0C1F0C1BFA1EF01F09FEF01F0B5EF90
:1003400001F0010EBD6FBEC060F0BFC061F0C0C063
:1003500062F0C1C063F069EC1EF060C0BEF061C025
:10036000BFF062C0C0F063C0C1F0000E0001C36FF7
:10037000000EC26FECC0ADF0EDC0AEF0BD51D8B410
:10038000C4EF01F0C6EF01F0DAEF01F0BD51D8A4DF
:10039000CCEF01F0CEEF01F0D4EF01F0000EA36F2F
:1003A0002B0EA26FD8EF01F0000EA36F2D0EA26FDF
:1003B000A2C0BDF0BEC060F0BFC061F0C0C062F0BE
:1003C000C1C063F09FEC18F0000160056111D8A472
:1003D000ECEF01F0EEEF01F01EEF02F0BD51D8B4EA
:1003E000F4EF01F0F6EF01F0FFEF01F0BDC000F116
:1003F000AD07D8A0AE07000EC36F010EC26F000E8E
:10040000C225606F010EC321616F160E626F4BEC47
:100410001EF00001FD0EAD27FF0EAE2393C070F05D
:1004200094C071F0000E726F010E736FADC074F066
:10043000AEC075F0EDEC1BF089EF06F0BEC060F0C9
:10044000BFC061F0C0C062F0C1C063F09FEC18F0A3
:10045000000160516111D8A430EF02F032EF02F0D8
:100460004FEF02F0BD51D8B438EF02F03AEF02F08E
:1004700043EF02F0BDC000F1AD07D8A0AE07000EFB
:10048000C36F010EC26F000EC225606F010EC32143
:10049000616F1A0E626F4BEC1EF009EF02F0000E56
:1004A000C46F000EC56F800EC66F3F0EC76F000E83
:1004B000AC6F000EAB6FBEC060F0BFC061F0C0C0DB
:1004C00062F0C1C063F0000E646F000E656F000E35
:1004D000666F000E676F4DEC1AF00001D8B073EF35
:1004E00002F075EF02F057EF03F081EF02F0AFC0BA
:1004F000C4F0B0C0C5F0B1C0C6F0B2C0C7F0AB4BDD
:10050000AC2BC4C06EF0C5C06FF0C6C070F0C7C0E1
:1005100071F0000E726F000E736F200E746F410E3B
:10052000756FE6EC08F06EC0AFF06FC0B0F070C051
:10053000B1F071C0B2F00001AF51BE5D606FB0515B
:10054000BF59616FB151C059626FB251C159636FE8
:10055000EDEC1CF0000163BFB9EF02F063516211D2
:10056000611109E1020E605DD8A0B9EF02F0BBEFA6
:1005700002F077EF02F0AFC087F0B0C088F0B1C0F2
:1005800089F0B2C08AF0BEC08BF0BFC08CF0C0C092
:100590008DF0C1C08EF099EC17F00001D8A0D3EF18
:1005A00002F0D5EF02F077EF02F0C451BE5D606F4C
:1005B000C551BF59616FC651C059626FC751C1590A
:1005C000636FEDEC1CF0000163BFF4EF02F06351C8
:1005D0006211611107E1020E605DD8B0F2EF02F026
:1005E000F4EF02F03DEF03F0C4C0BEF0C5C0BFF0B1
:1005F000C6C0C0F0C7C0C1F057EF03F0C4C060F080
:10060000C5C061F0C6C062F0C7C063F0000E646F81
:10061000000E656F200E666F410E676F1FEC0FF0C6
:1006200060C0C4F061C0C5F062C0C6F063C0C7F06E
:100630000001AB07D8A0AC07C451BE5D606FC551C7
:10064000BF59616FC651C059626FC751C159636FBD
:10065000EDEC1CF0000163BF3BEF03F0635162114E
:10066000611107E1020E605DD8B039EF03F03BEF96
:1006700003F03DEF03F0F4EF02F0BEC087F0BFC01F
:1006800088F0C0C089F0C1C08AF0C4C08BF0C5C07A
:100690008CF0C6C08DF0C7C08EF099EC17F0000149
:1006A000D8A055EF03F057EF03F0FEEF02F099C02A
:1006B000A5F0A5C0A6F0EFBF60EF03F062EF03F076
:1006C00068EF03F0EEC09EF0EFC09FF06CEF03F018
:1006D000000E9F6F060E9E6F9EC0A9F09FC0AAF0ED
:1006E000A94BAA2B660EA619D8A479EF03F07BEFCD
:1006F00003F09BEF03F0ACBF82EF03F080EF03F059
:100700008EEF03F0000EC46F000EC56F800EC66F33
:100710003F0EC76F000EAC6F000EAB6F670EA519D2
:10072000D8B495EF03F097EF03F09BEF03F0AB51D4
:10073000A927AC51AA23000EB46F000EB36FBEC040
:10074000B5F0BFC0B6F0C0C0B7F0C1C0B8F0C4C00B
:10075000AFF0C5C0B0F0C6C0B1F0C7C0B2F02DEF69
:1007600004F0B5C060F0B6C061F0B7C062F0B8C0C8
:1007700063F0C4C064F0C5C065F0C6C066F0C7C011
:1007800067F01FEC0FF060C079F061C07AF062C0D2
:100790007BF063C07CF02DEC13F079C0B9F07AC027
:1007A000BAF07BC0BBF07CC0BCF0B9C087F0BAC067
:1007B00088F0BBC089F0BCC08AF015EC17F087C088
:1007C000A7F088C0A8F0B5C087F0B6C088F0B7C061
:1007D00089F0B8C08AF0B9C072F0BAC073F0BBC07B
:1007E00074F0BCC075F0C4C06EF0C5C06FF0C6C078
:1007F00070F0C7C071F0E6EC08F06EC08BF06FC00F
:100800008CF070C08DF071C08EF005EC1EF087C0CA
:10081000B5F088C0B6F089C0B7F08AC0B8F0C4C0DF
:1008200060F0C5C061F0C6C062F0C7C063F0000EE2
:100830000001646F000E656F200E666F410E676FDA
:100840001FEC0FF060C0C4F061C0C5F062C0C6F01C
:1008500063C0C7F00001B34BB42BA951B35DB451D1
:10086000800A9A6FAA51800A9A59D8A03AEF04F0E8
:100870003CEF04F0B1EF03F0C4C06EF0C5C06FF000
:10088000C6C070F0C7C071F0000E726F000E736FBB
:10089000A00E746F400E756FE6EC08F06EC0B9F0F4
:1008A0006FC0BAF070C0BBF071C0BCF0B5C087F0CB
:1008B000B6C088F0B7C089F0B8C08AF0B9C08BF074
:1008C000BAC08CF0BBC08DF0BCC08EF099EC17F0B4
:1008D0000001D8B06EEF04F070EF04F07AEF04F08E
:1008E000000EB96F000EBA6F000EBB6F000EBC6F2A
:1008F000A3EF04F0B5C060F0B6C061F0B7C062F01D
:10090000B8C063F0B9C064F0BAC065F0BBC066F0AF
:10091000BCC067F04DEC1AF00001D8A092EF04F0D3
:1009200094EF04F0A3EF04F0A7B199EF04F09BEF6C
:1009300004F0A3EF04F0000EB96F000EBA6F000EC2
:10094000BB6F000EBC6FBEC060F0BFC061F0C0C026
:1009500062F0C1C063F0B9C064F0BAC065F0BBC05A
:1009600066F0BCC067F08AEC06F060C0B5F061C00C
:10097000B6F062C0B7F063C0B8F0B5C087F0B6C0DB
:1009800088F0B7C089F0B8C08AF0000E0001726F1D
:10099000000E736F200E746F410E756FAFC06EF056
:1009A000B0C06FF0B1C070F0B2C071F0E6EC08F00A
:1009B0006EC08BF06FC08CF070C08DF071C08EF087
:1009C00099EC17F00001D8A0E8EF04F0EAEF04F08A
:1009D00012EF05F0AB4BAC2BAFC06EF0B0C06FF0B8
:1009E000B1C070F0B2C071F0000E726F000E736F84
:1009F000200E746F410E756FE6EC08F06EC0AFF01C
:100A00006FC0B0F070C0B1F071C0B2F0660E0001FE
:100A1000A619D8A40EEF05F010EF05F012EF05F0BF
:100A2000A94BAA2BAFC0C4F0B0C0C5F0B1C0C6F08E
:100A3000B2C0C7F0ABC09CF0ACC09DF0A46B000E80
:100A4000A16F000EA06F000EB46F000EB36F0FEF1A
:100A500006F0B5C060F0B6C061F0B7C062F0B8C0D3
:100A600063F0C4C064F0C5C065F0C6C066F0C7C01E
:100A700067F01FEC0FF060C079F061C07AF062C0DF
:100A80007BF063C07CF02DEC13F079C0B9F07AC034
:100A9000BAF07BC0BBF07CC0BCF0B9C087F0BAC074
:100AA00088F0BBC089F0BCC08AF015EC17F00001DB
:100AB00088BF66EF05F0885107E10A0E875DD8B060
:100AC00064EF05F066EF05F076EF05F0B9C087F04A
:100AD000BAC088F0BBC089F0BCC08AF015EC17F032
:100AE00087C0A7F088C0A8F07AEF05F0000EA86FC5
:100AF000090EA76F0001A451D8A481EF05F083EF80
:100B000005F0ABEF05F09DBF8AEF05F088EF05F02B
:100B1000ABEF05F0000EC225D96E010EC321DA6ECF
:100B20002E0EDF6EC24BC32BAD07D8A0AE07010E51
:100B3000A46FABEF05F0000EC225D96E010EC321E4
:100B4000DA6E300EDF6EC24BC32BAD07D8A0AE07F6
:100B5000A007D8A0A107A051A111D8A4B2EF05F019
:100B6000B4EF05F09BEF05F0000EC225D96E010E23
:100B7000C321DA6EA751300FDF6EC24BC32BAD0716
:100B8000D8A0AE07B5C087F0B6C088F0B7C089F06E
:100B9000B8C08AF0B9C072F0BAC073F0BBC074F0CC
:100BA000BCC075F0C4C06EF0C5C06FF0C6C070F0B8
:100BB000C7C071F0E6EC08F06EC08BF06FC08CF02F
:100BC00070C08DF071C08EF005EC1EF087C0B5F0DE
:100BD00088C0B6F089C0B7F08AC0B8F0C4C060F071
:100BE000C5C061F0C6C062F0C7C063F0000E00016E
:100BF000646F000E656F200E666F410E676F1FEC0D
:100C00000FF060C0C4F061C0C5F062C0C6F063C040
:100C1000C7F000019C07D8A09D07B34BB42BA95186
:100C2000B35DB451800A9A6FAA51800A9A59D8B01C
:100C30001CEF06F01EEF06F02CEF06F0C3BF2AEF04
:100C400006F0C35109E14B0EC25DD8A02AEF06F0B1
:100C50002CEF06F029EF05F0000EB46F4F0EB36FC6
:100C6000000EB325D96E010EB421DA6EDF6A000ED4
:100C70009A6F010E9B6FC2519A5FC3519B5BB35138
:100C80009A25606FB4519B21616F000E626F010E57
:100C9000636FC2C064F0C3C065F042EC1DF0000198
:100CA000C251B35DC26FC351B459C36FBD51D8A413
:100CB0005CEF06F05FEF06F0010E60EF06F0000E4D
:100CC000B36FB46BBD51D8B468EF06F06AEF06F0AD
:100CD00075EF06F0C207D8A0C307000EC225D96E73
:100CE000010EC321DA6EBDC0DFFFB351AD5FB45159
:100CF000AE5B93C070F094C071F0000EC225726FAD
:100D0000010EC321736FADC074F0AEC075F0EDEC91
:100D10001BF0120000016351800B6C6F635163255F
:100D20006E6F62AF96EF06F098EF06F099EF06F05F
:100D30006E816E51D8B49FEF06F0A1EF06F0B5EFCB
:100D400006F06E29D8A4A7EF06F0A9EF06F0B1EFE0
:100D500006F0000E606F000E616F000E626F000EF5
:100D6000636F628F636BBDEF06F0000E606F000E65
:100D7000616F000E626F000E636F6751800B6D6FC5
:100D80006C516D19D8B4C7EF06F0C9EF06F0CAEF81
:100D900006F06C8D675167256D6F66AFD2EF06F078
:100DA000D4EF06F0D5EF06F06D816D51D8B4DBEFCE
:100DB00006F0DDEF06F0F1EF06F06D29D8A4E3EFC1
:100DC00006F0E5EF06F0EDEF06F0000E646F000EA2
:100DD000656F000E666F000E676F668F676BF9EFC9
:100DE00006F0000E646F000E656F000E666F000E59
:100DF000676F6E516D5DD8B000EF07F002EF07F03E
:100E000029EF07F06CAD07EF07F009EF07F00BEFE4
:100E100007F0800E6C1B6EC06FF06DC06EF06FC07F
:100E20006DF060C06FF064C060F06FC064F061C0CE
:100E30006FF065C061F06FC065F062C06FF066C0B2
:100E400062F06FC066F063C06FF067C063F06FC0A0
:100E500067F06F6B6E516DC068F0696B685F000E74
:100E6000695B69BF3DEF07F0695109E11A0E685DE2
:100E7000D8A03DEF07F03FEF07F076EF07F06051A5
:100E8000611162116311D8A448EF07F04BEF07F02E
:100E9000010E4CEF07F0000E6F6F000E606F000E3A
:100EA000616F000E626F000E636F6DC06EF07FEFBA
:100EB00007F06FA15EEF07F060EF07F066EF07F055
:100EC000D8906F3101096F6F68EF07F0D8906F33DA
:100ED00060A16DEF07F06FEF07F070EF07F06F8F15
:100EE000633563336233613360336E2B6D516E5DF6
:100EF000D8A07DEF07F07FEF07F059EF07F06CBD4A
:100F000084EF07F086EF07F0C6EF07F06E51D8A424
:100F10008CEF07F08EEF07F098EF07F0000E606F90
:100F2000000E616F000E626F000E636FE5EF08F058
:100F300064516027655161236651622367516323C1
:100F400063A1A5EF07F0A7EF07F053EF08F06FA13B
:100F5000ACEF07F0AEEF07F0B4EF07F0D8906F31C9
:100F600001096F6FB6EF07F0D8906F3360A1BBEF48
:100F700007F0BDEF07F0BEEF07F06F8F6335633307
:100F80006233613360336E2B53EF08F06451605D60
:100F900065516159665162596351800A686F6751A2
:100FA000800A6859D8B0D7EF07F0D9EF07F004EFFF
:100FB00008F06051645D686F61516559696F6251F5
:100FC00066596A6F635167596B6FFF0E6825606FD2
:100FD000FF0E6921616FFF0E6A21626FFF0E6B21A8
:100FE000636F800E6C1B6F6D6F51D8A4FAEF07F022
:100FF000FCEF07F00CEF08F0010E6027000E6123F4
:10100000622363230CEF08F06451605F6551615BFC
:101010006651625B6751635B6051611162116311DC
:10102000D8A415EF08F017EF08F04CEF08F06F5157
:10103000D8A41DEF08F01FEF08F04CEF08F0000EE9
:10104000606F000E616F000E626F000E636FE5EF60
:1010500008F0D89060376137623763376FAF33EF8E
:1010600008F035EF08F036EF08F060816FA13BEF34
:1010700008F03DEF08F041EF08F0D8806F3743EFFC
:1010800008F0D8906F376E51D8B449EF08F04BEFA5
:1010900008F04CEF08F06E0762AF51EF08F053EF25
:1010A00008F029EF08F06D6B6FAF59EF08F05BEFB8
:1010B00008F073EF08F06FC068F07F0E6817D8B4BF
:1010C00064EF08F066EF08F06AEF08F0010E6D6F4C
:1010D00073EF08F060A16FEF08F071EF08F073EFA5
:1010E00008F066EF08F06D51D8B479EF08F07BEFA7
:1010F00008F0A6EF08F0010E6027000E61236223BE
:10110000632363A186EF08F088EF08F0A6EF08F0EC
:1011100060C068F061C069F062C06AF063C06BF0E3
:101120006B356B336A336933683368C060F069C00C
:1011300061F06AC062F06BC063F06E29D8B4A3EFAF
:1011400008F0A5EF08F0A6EF08F06E2B6E29D8B4D2
:10115000ACEF08F0AEEF08F0B6EF08F06E51D8A48F
:10116000B4EF08F0B6EF08F0C7EF08F0000E606FBC
:10117000000E616F000E626F000E636F6E51D8A497
:10118000C4EF08F0C6EF08F0C7EF08F06C6B6EA173
:10119000CCEF08F0CEEF08F0D1EF08F0628FD2EF7D
:1011A00008F0629FD8906E31636F6CAFDAEF08F091
:1011B000DCEF08F0DDEF08F0638F60C060F061C025
:1011C00061F062C062F063C063F01200000171510F
:1011D000800B7A6F71517125806F70AFF2EF08F05C
:1011E000F4EF08F0F5EF08F080818051D8B4FBEF00
:1011F00008F0FDEF08F010EF09F08029D8A403EF04
:1012000009F005EF09F00DEF09F0000E6E6F000E0A
:101210006F6F000E706F000E716F708F18EF09F016
:10122000000E6E6F000E6F6F000E706F000E716F0C
:101230007551800B7A1B755175257B6F74AF23EF49
:1012400009F025EF09F026EF09F07B817B51D8B436
:101250002CEF09F02EEF09F041EF09F07B29D8A41B
:1012600034EF09F036EF09F03EEF09F0000E726F2F
:10127000000E736F000E746F000E756F748F49EF60
:1012800009F0000E726F000E736F000E746F000E87
:10129000756F7B51D8B44FEF09F051EF09F059EF5A
:1012A00009F08051D8A457EF09F059EF09F063EF26
:1012B00009F0000E6E6F000E6F6F000E706F000E63
:1012C000716FF9EF0AF074516E03F3CF85F0F4CF2C
:1012D00086F085517C6F7D6B7E6B7F6B8651816F55
:1012E000826B836B846B73516F03F3CF85F0F4CF04
:1012F00086F085517C27000E7D237E237F23865137
:101300008127000E82238323842372517003F3CF3D
:1013100085F0F4CF86F085517C27000E7D237E2357
:101320007F2386518127000E8223832384237EC05E
:101330007FF07DC07EF07CC07DF07C6B72516F03CE
:10134000F3CF85F0F4CF86F085517C2786517D233D
:10135000000E7E23000E7F2373516E03F3CF85F0C2
:10136000F4CF86F085517C2786517D23000E7E23A5
:10137000000E7F237EC07FF07DC07EF07CC07DF0BC
:101380007C6B72516E03F3CF85F0F4CF86F08551FC
:101390007C2786517D23000E7E23000E7F2374510F
:1013A0006F03F3CF85F0F4CF86F085518127865106
:1013B0008223000E8323000E842373517003F3CF26
:1013C00085F0F4CF86F08551812786518223000E67
:1013D0008323000E842374517003F3CF85F0F4CF80
:1013E00086F08551766F8651776F786B796B78C010
:1013F00079F077C078F076C077F0766B76518127F8
:101400007751822378518323795184237CC076F0ED
:101410007DC077F07EC078F07FC079F0190E16EFAE
:101420000AF0D8907933783377337633E82E11EF9A
:101430000AF076518127775182237851832379519D
:1014400084237EC07FF07DC07EF07CC07DF07C6B0D
:101450007B5180C076F0776B7627000E7723820E63
:101460007625856FFF0E7721866F4CEF0AF0D890B6
:1014700081378237833784377FAF41EF0AF043EFFC
:101480000AF044EF0AF08181D8907C377D377E37AF
:101490007F378507D8A0860783AF51EF0AF053EF57
:1014A0000AF037EF0AF07B6B7FAF59EF0AF05BEF82
:1014B0000AF07FEF0AF0FF0E7C15766FFF0E7D15A8
:1014C000776FFF0E7E15786F7F0E7F15796F7651DF
:1014D000771178117911D8B470EF0AF072EF0AF031
:1014E00076EF0AF0010E7B6F7FEF0AF081A17BEFB0
:1014F0000AF07DEF0AF07FEF0AF072EF0AF07B51FD
:10150000D8B485EF0AF087EF0AF0ABEF0AF0010ECE
:101510008127000E82238323842384A192EF0AF083
:1015200094EF0AF0ABEF0AF081C076F082C077F05A
:1015300083C078F084C079F07935793378337733A4
:10154000763376C081F077C082F078C083F079C0BE
:1015500084F0854B862B86BFB6EF0AF0865108E1F2
:101560008529D8A0B6EF0AF0B8EF0AF0C2EF0AF06A
:10157000000E816F000E826F800E836F7F0E846F6E
:10158000EFEF0AF086BFCFEF0AF0865106E185053E
:10159000D8B0CDEF0AF0CFEF0AF0DAEF0AF0000E84
:1015A000816F000E826F000E836F000E846F7A6B66
:1015B000EFEF0AF085C080F0FF0E8117FF0E821753
:1015C0007F0E8317000E841780A1E9EF0AF0EBEF7E
:1015D0000AF0ECEF0AF0838FD8908031846F7A5153
:1015E000841381C06EF082C06FF083C070F084C03D
:1015F00071F012000450800B0D6E04500424136E21
:1016000003AE05EF0BF007EF0BF008EF0BF01380C4
:101610001350D8B40EEF0BF010EF0BF023EF0BF0DC
:101620001328D8A416EF0BF018EF0BF020EF0BF0F7
:10163000000E016E000E026E000E036E000E046EB0
:10164000038E2BEF0BF0000E016E000E026E000EEB
:10165000036E000E046E0850800B0D1A085008240B
:10166000126E07AE36EF0BF038EF0BF039EF0BF0E0
:1016700012801250D8B43FEF0BF041EF0BF054EF53
:101680000BF01228D8A447EF0BF049EF0BF051EF05
:101690000BF0000E056E000E066E000E076E000EBB
:1016A000086E078E5CEF0BF0000E056E000E066EE6
:1016B000000E076E000E086E1250D8B462EF0BF0E9
:1016C00064EF0BF06CEF0BF01350D8A46AEF0BF043
:1016D0006CEF0BF076EF0BF0000E016E000E026E59
:1016E000000E036E000E046E0CEF0DF007500102A9
:1016F000F3CF18F0F4CF19F018500E6E0F6A106A7D
:10170000116A1950146E156A166A176A0650020299
:10171000F3CF18F0F4CF19F018500E26000E0F2258
:101720001022112219501426000E152216221722FB
:1017300005500302F3CF18F0F4CF19F018500E261D
:10174000000E0F221022112219501426000E15220D
:101750001622172210C011F00FC010F00EC00FF0AB
:101760000E6A05500202F3CF18F0F4CF19F01850AA
:101770000E2619500F22000E1022000E11220650C4
:101780000102F3CF18F0F4CF19F018500E261950BB
:101790000F22000E1022000E112210C011F00FC0F7
:1017A00010F00EC00FF00E6A05500102F3CF18F0D2
:1017B000F4CF19F018500E2619500F22000E1022E7
:1017C000000E112207500202F3CF18F0F4CF19F0E7
:1017D0001850142619501522000E1622000E17223A
:1017E00006500302F3CF18F0F4CF19F01850142666
:1017F00019501522000E1622000E17220750030260
:10180000F3CF18F0F4CF19F01850096E19500A6E82
:101810000B6A0C6A0BC00CF00AC00BF009C00AF08E
:10182000096A095014260A5015220B5016220C5032
:1018300017220EC009F00FC00AF010C00BF011C043
:101840000CF0190E29EF0CF0D8900C320B320A3242
:101850000932E82E24EF0CF0095014260A50152204
:101860000B5016220C50172210C011F00FC010F0B0
:101870000EC00FF00E6A125013C009F00A6A092652
:10188000000E0A22820E0924186EFF0E0A20196E1D
:101890005FEF0CF0D890143615361636173611AEA9
:1018A00054EF0CF056EF0CF057EF0CF01480D8907A
:1018B0000E360F36103611361806D8A0190616AE99
:1018C00064EF0CF066EF0CF04AEF0CF0126A11AE08
:1018D0006CEF0CF06EEF0CF092EF0CF0FF0E0E14AC
:1018E000096EFF0E0F140A6EFF0E10140B6E7F0EA2
:1018F00011140C6E09500A100B100C10D8B483EFA1
:101900000CF085EF0CF089EF0CF0010E126E92EFE7
:101910000CF014A08EEF0CF090EF0CF092EF0CF0A6
:1019200085EF0CF01250D8B498EF0CF09AEF0CF051
:10193000BEEF0CF0010E1426000E152216221722FF
:1019400017A0A5EF0CF0A7EF0CF0BEEF0CF014C041
:1019500009F015C00AF016C00BF017C00CF00C34DB
:101960000C320B320A32093209C014F00AC015F0E9
:101970000BC016F00CC017F0184A192A19BEC9EF8F
:101980000CF0195008E11828D8A0C9EF0CF0CBEFE3
:101990000CF0D5EF0CF0000E146E000E156E800EDC
:1019A000166E7F0E176E02EF0DF019BEE2EF0CF00F
:1019B000195006E11804D8B0E0EF0CF0E2EF0CF09B
:1019C000EDEF0CF0000E146E000E156E000E166E8C
:1019D000000E176E0D6A02EF0DF018C013F0FF0E27
:1019E0001416FF0E15167F0E1616000E171613A0EE
:1019F000FCEF0CF0FEEF0CF0FFEF0CF0168ED89021
:101A00001330176E0D50171214C001F015C002F0FC
:101A100016C003F017C004F01200D380D382D3960F
:101A2000D398D39AD38C020E0001E16F450EE06F7C
:101A3000A90EE82EFED7E02FFCD7E12FFAD700D071
:101A4000080E7E6E100E926E94907E983CEC1FF005
:101A5000100EE82EFED700D0EBEC1EF00FEC1FF0BE
:101A6000949A94989496949C949E8B9A8B988B9627
:101A70008B9C8B9E9482948418EC1FF0DBEC1EF000
:101A8000F28CF28EA2EC1EF00001FE05D8A44BEF02
:101A90000DF04DEF0DF0D0EF0DF0F905D8A453EF98
:101AA0000DF055EF0DF0D0EF0DF0898AF6C060F023
:101AB000F7C061F0626B636B000E29EC15F060C03B
:101AC0006EF061C06FF062C070F063C071F00A0E1A
:101AD0000001726F280E736FA00E746F3B0E756F4E
:101AE000E6EC08F06EC0E8F06FC0E9F070C0EAF014
:101AF00071C0EBF00001F24BF32BF0C060F0F1C0CD
:101B000061F042EC1FF00001E26FF2C062F0F3C03E
:101B100063F0E2C064F06BEC1DF00001F24BF32BBC
:101B2000F0C060F0F1C061F045EC1FF00001E36F20
:101B3000F2C062F0F3C063F0E3C064F06BEC1DF040
:101B40000001F24BF32BF2C062F0F3C063F0FE0E23
:101B5000646F6BEC1DF00001F04BF12BDC0EF25DBD
:101B60001E0EF359D8A0B7EF0DF0B9EF0DF0BEEF90
:101B70000DF0F96B000EF36F000EF26F030E000113
:101B8000E16F8A0EE06F550EE82EFED7E02FFCD7EE
:101B9000E12FFAD700D00001FE6B899A34EF0EF0E6
:101BA000FE05D8A4D6EF0DF0D8EF0DF034EF0EF00F
:101BB000020EF919D8A4DFEF0DF0E1EF0DF034EFCC
:101BC0000EF0898AF6C060F0F7C061F0626B636B5B
:101BD000000E29EC15F060C06EF061C06FF062C0BD
:101BE00070F063C071F00A0E0001726F280E736FFF
:101BF000A00E746F3B0E756FE6EC08F06EC0E8F057
:101C00006FC0E9F070C0EAF071C0EBF0440E000163
:101C1000DA6F110EDB6FE8C0DCF0E9C0DDF0EAC07E
:101C2000DEF0EBC0DFF029EC1EF0440E0001616F26
:101C3000626BF7EC1AF00E0E0001616F6151D8A4CF
:101C4000030E626FF7EC1AF0030E0001E16F8A0ECB
:101C5000E06F550EE82EFED7E02FFCD7E12FFAD724
:101C600000D00001FE6B899A030EF919D8A43BEF4E
:101C70000EF03DEF0EF0E5EF0EF0898AF251F31110
:101C8000D8A445EF0EF047EF0EF054EF0EF0010E22
:101C9000616F6151D8A4030E626FF7EC1AF0000176
:101CA000F24BF32BEEEF0EF0DC0EF25D1E0EF3594D
:101CB000D8A05DEF0EF05FEF0EF06EEF0EF00A0EA3
:101CC000616F6151D8A4030E626FF7EC1AF0000E39
:101CD0000001F36F000EF26FEEEF0EF0F2C062F053
:101CE000F3C063F094EC1DF00001FD6FF24BF32B99
:101CF000F2C062F0F3C063F094EC1DF00001FC6FE1
:101D0000F24BF32BF2C062F0F3C063F094EC1DF0E1
:101D10000001FB6FF24BF32BFE0EFB19D8A493EFDF
:101D20000EF095EF0EF0DFEF0EF0FC51E06FFD517D
:101D3000F46FE0C0F5F0F4C060F0F5C061F0626BE4
:101D4000636B000E29EC15F060C06EF061C06FF09F
:101D500062C070F063C071F00A0E0001726F280E4D
:101D6000736FA00E746F3B0E756FE6EC08F06EC0DB
:101D7000E8F06FC0E9F070C0EAF071C0EBF0440E1B
:101D80000001DA6F110EDB6FE8C0DCF0E9C0DDF0B6
:101D9000EAC0DEF0EBC0DFF029EC1EF0440E0001DB
:101DA000616F626BF7EC1AF00E0E0001616F61510A
:101DB000D8A4030E626FF7EC1AF0EEEF0EF01E0ED1
:101DC000F36FDC0EF26FEEEF0EF0070EF961EBEF42
:101DD0000EF0EDEF0EF0EEEF0EF0899A0001FA052D
:101DE000D8A4F5EF0EF0F7EF0EF00DEF0FF08290A4
:101DF000E8EC10F08BEC1CF01A0E0001E16F5E0EA7
:101E0000E06F6E0EE82EFED7E02FFCD7E12FFAD759
:101E100000000001FA6B44EF0DF08280030E000118
:101E2000E16F8A0EE06F550EE82EFED7E02FFCD74B
:101E3000E12FFAD700D044EF0DF033EF01F00001AD
:101E40006351800B706F63516325776F62AF2BEF27
:101E50000FF02DEF0FF02EEF0FF077817751D8B400
:101E600034EF0FF036EF0FF04AEF0FF07729D8A4D8
:101E70003CEF0FF03EEF0FF046EF0FF0000E606FFB
:101E8000000E616F000E626F000E636F628F636BF6
:101E900052EF0FF0000E606F000E616F000E626F68
:101EA000000E636F6751800B701B67516725786F59
:101EB00066AF5DEF0FF05FEF0FF060EF0FF078812E
:101EC0007851D8B466EF0FF068EF0FF07CEF0FF0A9
:101ED0007829D8A46EEF0FF070EF0FF078EF0FF0C5
:101EE000000E646F000E656F000E666F000E676F68
:101EF000668F676B84EF0FF0000E646F000E656FE6
:101F0000000E666F000E676F6451651166116711F0
:101F1000D8A48DEF0FF08FEF0FF0A7EF0FF0000EAA
:101F2000606F000E616F000E626F000E636F800EB7
:101F300062137F0E63137051631360C060F061C061
:101F400061F062C062F063C063F0E7EF10F07751B8
:101F5000D8A4ADEF0FF0AFEF0FF0B9EF0FF0000E18
:101F6000606F000E616F000E626F000E636FE7EF2F
:101F700010F0785177C068F0696B685F000E695B9C
:101F80007F0E6825716F000E6921726F60C06CF062
:101F900061C06DF062C06EF063C06FF0000E606FE4
:101FA000000E616F000E626F000E636F000E736FA4
:101FB000000E746F000E756F000E766F786B19EF60
:101FC00010F07851D8B4E7EF0FF0E9EF0FF000EF21
:101FD00010F0D8906C376D376E376F37D890603708
:101FE00061376237633776AFF8EF0FF0FAEF0FF033
:101FF000FBEF0FF06081D890733774377537763701
:1020000064516C5D65516D5966516E5967516F59D8
:10201000D8A00DEF10F00FEF10F018EF10F0768D44
:1020200064516C5F65516D5B66516E5B67516F5BB0
:10203000782B190E78651FEF10F021EF10F0E1EF0B
:102040000FF06C516D116E116F11D8B42AEF10F0B2
:102050002CEF10F044EF10F0738144EF10F0D890A3
:10206000603761376237633776AF39EF10F03BEF97
:1020700010F03CEF10F06081D890733774377537EB
:1020800076377107D8A0720762AF49EF10F04BEFB7
:1020900010F02FEF10F0786B76AF51EF10F053EF98
:1020A00010F077EF10F0FF0E7315686FFF0E7415C8
:1020B000696FFF0E75156A6F7F0E76156B6F68512D
:1020C00069116A116B11D8B468EF10F06AEF10F063
:1020D0006EEF10F0010E786F77EF10F060A173EFE4
:1020E00010F075EF10F077EF10F06AEF10F0785104
:1020F000D8B47DEF10F07FEF10F0A3EF10F0010ED9
:102100006027000E61236223632363A18AEF10F02E
:102110008CEF10F0A3EF10F060C068F061C069F0C0
:1021200062C06AF063C06BF06B356B336A3369333E
:10213000683368C060F069C061F06AC062F06BC06B
:1021400063F0714B722B72BFAEEF10F0725108E169
:102150007129D8A0AEEF10F0B0EF10F0BBEF10F087
:10216000000E726F7169000E606F000E616F000EDD
:10217000626F000E636F72BFC8EF10F0725106E11C
:102180007105D8B0C6EF10F0C8EF10F0D5EF10F021
:10219000000E726F000E716F000E606F000E616FA7
:1021A000000E626F000E636F706B71C077F077A1E5
:1021B000DCEF10F0DEEF10F0E1EF10F0628FE2EFF5
:1021C00010F0629FD8907731636F9BEF0FF0120091
:1021D0000001F951D8A4EFEF10F0F1EF10F0F9EF92
:1021E00010F00B0E3C6E410E3B6E0B0E3A6E0EEF76
:1021F00012F0F905D8A4FFEF10F001EF11F05EEF37
:1022000011F0000E726F000E736FC80E746F420EE5
:10221000756FE8C06EF0E9C06FF0EAC070F0EBC017
:1022200071F0E6EC08F06EC087F06FC088F070C007
:1022300089F071C08AF015EC17F087C036F088C0BD
:1022400037F036C060F037C061F0000E0001636FF8
:10225000640E626F26EC1CF060C034F061C035F093
:1022600036C060F037C061F0000E0001636F640E8D
:10227000626F78EC1BF060C032F061C033F032C0A6
:102280003CF034C060F035C061F0000E0001636FB7
:102290000A0E626F78EC1BF0000160513B6E34C097
:1022A00060F035C061F0000E636F0A0E626F26ECBD
:1022B0001CF0000160513A6E0EEF12F0020EF91997
:1022C000D8A465EF11F067EF11F0B9EF11F0000E2F
:1022D000726F000E736FC80E746F420E756FE8C098
:1022E0006EF0E9C06FF0EAC070F0EBC071F0E6ECA0
:1022F00008F06EC087F06FC088F070C089F071C0C0
:102300008AF015EC17F087C036F088C037F036C079
:1023100060F037C061F0000E0001636F640E626F01
:1023200026EC1CF060C034F061C035F036C060F0BF
:1023300037C061F0000E0001636F640E626F78ECCD
:102340001BF060C032F061C033F032C03CF034C0EA
:1023500060F035C061F0000E0001636F0A0E626F1D
:1023600078EC1BF0000160513B6E430E3A6E0EEFAD
:1023700012F0030EF919D8A4C0EF11F0C2EF11F05A
:10238000CAEF11F00B0E3C6E430E3B6E0B0E3A6E15
:102390000EEF12F0040EF919D8A4D1EF11F0D3EF1B
:1023A00011F0DAEF11F0530E3C6E3B6A0B0E3A6EF1
:1023B0000EEF12F0050EF919D8A4E1EF11F0E3EFDA
:1023C00011F0EBEF11F0530E3C6E010E3B6E0B0E55
:1023D0003A6E0EEF12F0060EF919D8A4F2EF11F0D2
:1023E000F4EF11F0FCEF11F0530E3C6E020E3B6E59
:1023F0000B0E3A6E0EEF12F0070EF919D8A403EF88
:1024000012F005EF12F00DEF12F0430E3C6E4C0E81
:102410003B6E720E3A6E0EEF12F0000012000001D9
:10242000F951D8A416EF12F018EF12F020EF12F0C5
:102430000B0E3C6E410E3B6E0B0E3A6E2CEF13F002
:10244000F905D8A426EF12F028EF12F080EF12F071
:10245000000E056E000E066EC80E076E420E086E68
:10246000E8C001F0E9C002F0EAC003F0EBC004F0FC
:10247000FAEC0AF001C01AF002C01BF003C01CF015
:1024800004C01DF01CEC18F01AC036F01BC037F069
:1024900036C001F037C002F0000E046E640E036E09
:1024A00059EC1CF001C034F002C035F036C001F028
:1024B00037C002F0000E046E640E036EB3EC1BF026
:1024C00001C032F002C033F032C03CF034C001F041
:1024D00035C002F0000E046E0A0E036EB3EC1BF062
:1024E00001503B6E34C001F035C002F0000E046EA6
:1024F0000A0E036E59EC1CF001503A6E2CEF13F0EB
:10250000020EF919D8A487EF12F089EF12F0D7EF75
:1025100012F0000E056E000E066EC80E076E420E1B
:10252000086EE8C001F0E9C002F0EAC003F0EBC0B9
:1025300004F0FAEC0AF001C01AF002C01BF003C06C
:102540001CF004C01DF01CEC18F01AC036F01BC0C3
:1025500037F036C001F037C002F0000E046E640E92
:10256000036E59EC1CF001C034F002C035F036C0E7
:1025700001F037C002F0000E046E640E036EB3EC7F
:102580001BF001C032F002C033F032C03CF034C066
:1025900001F035C002F0000E046E0A0E036EB3ECBB
:1025A0001BF001503B6E430E3A6E2CEF13F0030EFE
:1025B000F919D8A4DEEF12F0E0EF12F0E8EF12F014
:1025C0000B0E3C6E430E3B6E0B0E3A6E2CEF13F06F
:1025D000040EF919D8A4EFEF12F0F1EF12F0F8EFB2
:1025E00012F0530E3C6E3B6A0B0E3A6E2CEF13F05A
:1025F000050EF919D8A4FFEF12F001EF13F009EF5F
:1026000013F0530E3C6E010E3B6E0B0E3A6E2CEF28
:1026100013F0060EF919D8A410EF13F012EF13F00F
:102620001AEF13F0530E3C6E020E3B6E0B0E3A6E19
:102630002CEF13F0070EF919D8A421EF13F023EFB4
:1026400013F02BEF13F0430E3C6E4C0E3B6E720EEC
:102650003A6E2CEF13F0000012002CC089F02DC050
:102660008AF02EC08BF02FC08CF079C089F07AC030
:102670008AF07BC08BF07CC08CF0810E00017D6FF6
:10268000FF0E7E6F89C07FF08AC080F08BC081F022
:102690008CC082F0180E52EF13F0D8908233813341
:1026A00080337F33E82E4DEF13F07F517D25876F08
:1026B000000E7E21886F88BF67EF13F0885109E113
:1026C000170E875DD8A067EF13F069EF13F073EF73
:1026D00013F079C079F07AC07AF07BC07BF07CC0CF
:1026E0007CF037EF14F088BF78EF13F07AEF13F037
:1026F000EBEF13F087C07DF0FF0E7E6FFF0E7F6F54
:102700007F0E806F000E816F7D6789EF13F091EF70
:1027100013F08135813380337F337E337D2F84EF17
:1027200013F07EC083F07FC084F080C085F081C04C
:1027300086F00001835189157D6F84518A157E6F63
:1027400085518B157F6F86518C15806F7D517E1161
:102750007F118011D8A4AFEF13F0B1EF13F0B3EFF6
:1027600013F069EF13F089C07DF08AC07EF08BC052
:102770007FF08CC080F0200EC3EF13F0D890803330
:102780007F337E337D33E82EBEEF13F07D517E1113
:102790007F118011D8B4CFEF13F0D1EF13F0D9EF40
:1027A00013F08351892784518A2385518B238651C5
:1027B0008C23831D7D6F841D7E6F851D7F6F861D1D
:1027C000806F7D5189177E518A177F518B178051F9
:1027D0008C172FEF14F089C07DF08AC07EF08BC07B
:1027E0007FF08CC080F0200EFBEF13F0D890803388
:1027F0007F337E337D33E82EF6EF13F07D517E116B
:102800007F118011D8A407EF14F009EF14F013EF33
:1028100014F0000E896F000E8A6F000E8B6F000E91
:102820008C6F2FEF14F0D89089357D6F8A357E6FCD
:102830008B357F6F8C35806F7D517E117F118011BC
:10284000D8B425EF14F027EF14F02FEF14F0000E9A
:10285000896F000E8A6F800E8B6FBF0E8C6F89C0E0
:1028600079F08AC07AF08BC07BF08CC07CF01200CB
:102870000001CA51D96EDA6ADFCFF6FF030EF76E98
:102880000800F550250AD8A448EF14F04AEF14F0D8
:1028900015EF15F0CA51D96EDA6ADF2A000EED6F16
:1028A000000EEC6FECC0F8F0EE69EF69CA51D96E1A
:1028B000DA6ADFCFF6FF030EF76E0800F5502E0A36
:1028C000D8A465EF14F067EF14F077EF14F0CA5155
:1028D000D96EDA6ADF2ACAC060F0CBC061F0CCC022
:1028E00062F0A3EC1AF060C0EEF061C0EFF00001FE
:1028F000CA51D96EDA6ADF50D36FD3C0F6FF030E28
:10290000F76E0800F5CFD2F090EF14F0D32B9FEFC5
:1029100014F06C0ED26F9FEF14F0D26B9FEF14F097
:10292000D2514C0AD8B486EF14F02A0AD8B489EFF1
:1029300014F00A0AD8B486EF14F08DEF14F0D3C067
:10294000F6FF030EF76E0800F550660AD8A4ABEF49
:1029500014F0ADEF14F00EEF15F0D9EF14F0CBC07A
:10296000D9FFCCC0DAFFDFCFCDF0040EDF26CD518A
:10297000D96EDA6ADECFCEF0DECFCFF0DECFD0F088
:10298000DECFD1F0E4EF14F0CBC0D9FFCCC0DAFF3A
:10299000DFCFCDF0040EDF26CD51D96EDA6ADECF5F
:1029A000CEF0DECFCFF0DECFD0F0DECFD1F0E4EF4F
:1029B00014F0D2514C0AD8B4C4EF14F0200AD8B4A1
:1029C000AFEF14F0E4EF14F0CA51D96EDA6AD329EC
:1029D000DF6E02EF15F0C8C093F0C9C094F0CEC00E
:1029E00095F0CFC096F0D0C097F0D1C098F0D3C08A
:1029F000F6FF030EF76E0800F5CF99F090EC01F0AA
:102A000028EF15F0D3C0F6FF030EF76E0800F5505F
:102A1000660AD8B4EBEF14F00EEF15F00001CA51BE
:102A2000D96EDA6ADF2A28EF15F0CA51D96EDA6A50
:102A3000DFCFF6FF030EF76E0800F550606F616B95
:102A4000C8C062F0C9C063F0EFEC19F00EEF15F0EA
:102A500012000001686F00016851D8B432EF15F020
:102A600034EF15F056EF15F063BF3BEF15F039EF7B
:102A700015F056EF15F060C064F061C065F062C0FB
:102A800066F063C067F0641F651F661F671F642BD5
:102A9000000E65236623672364C06AF065C06BF08F
:102AA00066C06CF067C06DF05EEF15F060C06AF054
:102AB00061C06BF062C06CF063C06DF06051611179
:102AC00062116311D8A467EF15F069EF15F073EF89
:102AD00015F0000E606F000E616F000E626F000E49
:102AE000636F04EF16F0960E696F7DEF15F0692B9A
:102AF000D8906D336C336B336A33000E6A15646F94
:102B0000000E6B15656F000E6C15666FFE0E6D1571
:102B1000676F6451651166116711D8A492EF15F0C3
:102B200094EF15F077EF15F0A2EF15F0692B010E79
:102B30006A27000E6B236C236D23D8906D336C33A2
:102B40006B336A33000E6A15646F000E6B15656F88
:102B5000000E6C15666FFF0E6D15676F6451651181
:102B600066116711D8A4B7EF15F0B9EF15F096EF1D
:102B700015F0C1EF15F06907D8906A376B376C37DD
:102B80006D376CBFC6EF15F0C8EF15F0D0EF15F03C
:102B9000020E6961CEEF15F0D0EF15F0BBEF15F026
:102BA00069B1D5EF15F0D7EF15F0D8EF15F06C9FA0
:102BB000D890693369C064F0656B666B676B64C0FD
:102BC00067F0666B656B646B64516A1365516B13D8
:102BD00066516C1367516D136851D8B4F2EF15F05C
:102BE000F4EF15F0FCEF15F063BFFBEF15F0F9EF14
:102BF00015F0FCEF15F06D8F6AC060F06BC061F0EE
:102C00006CC062F06DC063F012000001606F48EFAD
:102C100016F03F0E616F8CEF16F0060E616F8CEFB1
:102C200016F05B0E616F8CEF16F04F0E616F8CEF3C
:102C300016F0660E616F8CEF16F06D0E616F8CEF03
:102C400016F07D0E616F8CEF16F0070E616F8CEF42
:102C500016F07F0E616F8CEF16F06F0E616F8CEFC8
:102C600016F0790E616F8CEF16F0770E616F8CEFB6
:102C700016F0390E616F8CEF16F0380E616F8CEF25
:102C800016F0310E616F8CEF16F0616B8CEF16F061
:102C900000016051000AD8B409EF16F0010AD8B457
:102CA0000DEF16F0030AD8B411EF16F0010AD8B4EC
:102CB00015EF16F0070AD8B419EF16F0010AD8B4C8
:102CC0001DEF16F0030AD8B421EF16F0010AD8B4AC
:102CD00025EF16F00F0AD8B429EF16F0010AD8B480
:102CE0002DEF16F0480AD8B435EF16F0020AD8B422
:102CF00039EF16F00F0AD8B43DEF16F01F0AD8B41A
:102D00001DEF16F00A0AD8B431EF16F02B0AD8B42A
:102D100041EF16F045EF16F061511200016ED0EF51
:102D200016F03F0E026E13EF17F0060E026E13EF51
:102D300017F05B0E026E13EF17F04F0E026E13EFDB
:102D400017F0660E026E13EF17F06D0E026E13EFA2
:102D500017F07D0E026E13EF17F0070E026E13EFE1
:102D600017F07F0E026E13EF17F06F0E026E13EF67
:102D700017F0790E026E13EF17F0770E026E13EF55
:102D800017F0390E026E13EF17F0380E026E13EFC4
:102D900017F0310E026E13EF17F0026A13EF17F0FF
:102DA0000150000AD8B491EF16F0010AD8B495EF9B
:102DB00016F0030AD8B499EF16F0010AD8B49DEFC3
:102DC00016F0070AD8B4A1EF16F0010AD8B4A5EF9F
:102DD00016F0030AD8B4A9EF16F0010AD8B4ADEF83
:102DE00016F00F0AD8B4B1EF16F0010AD8B4B5EF57
:102DF00016F0480AD8B4BDEF16F0020AD8B4C1EFF5
:102E000016F00F0AD8B4C5EF16F01F0AD8B4A5EF14
:102E100016F00A0AD8B4B9EF16F02B0AD8B4C9EFE5
:102E200016F0CDEF16F002501200000189358A35F8
:102E3000906F9051D8A41FEF17F021EF17F02BEFF0
:102E400017F0000E876F000E886F000E896F000E5E
:102E50008A6F98EF17F087C08BF088C08CF089C01C
:102E60008DF08AC08EF0200E3BEF17F0D8908E3395
:102E70008D338C338B33E82E36EF17F08B518F6FF9
:102E8000898FFF0E8717FF0E8817FF0E8917000E18
:102E90008A17960E905F90BF52EF17F050EF17F021
:102EA00068EF17F09051800A970FD8B05AEF17F0DB
:102EB0005CEF17F05EEF17F021EF17F0D8908A3330
:102EC000893388338733903F5EEF17F080EF17F038
:102ED0001F0E90656EEF17F070EF17F078EF17F098
:102EE00021EF17F0D8908737883789378A379007CE
:102EF0009051D8A47EEF17F080EF17F072EF17F023
:102F00008F51D8B486EF17F088EF17F090EF17F0D5
:102F10008A1F891F881F876D000E882389238A23B3
:102F200087C087F088C088F089C089F08AC08AF09D
:102F30001200000E000187158F6F000E8815906F2C
:102F4000800E8915916F7F0E8A15926F8F519011A7
:102F500091119211D8A4AFEF17F0B1EF17F0B9EFBC
:102F600017F0000E876F000E886F000E896F000E3D
:102F70008A6F000E8B158F6F000E8C15906F800E70
:102F80008D15916F7F0E8E15926F8F51901191114B
:102F90009211D8A4CEEF17F0D0EF17F0D8EF17F0BA
:102FA000000E8B6F000E8C6F000E8D6F000E8E6FFB
:102FB0008AAFDDEF17F0DFEF17F0E8EF17F0876D5E
:102FC000881FD8B0882B891FD8B0892B800E8A57CC
:102FD0008EAFEDEF17F0EFEF17F0F8EF17F08B6D06
:102FE0008C1FD8B08C2B8D1FD8B08D2B800E8E5798
:102FF000000E871B000E881B000E891B800E8A1B8B
:10300000000E8B1B000E8C1B000E8D1B800E8E1B6A
:103010008B51875D8C5188598D5189598E518A59B0
:10302000D8B015EF18F017EF18F01AEF18F0D89085
:103030001BEF18F0D88012001C341D34236E23506F
:10304000D8A425EF18F027EF18F031EF18F0000E94
:103050001A6E000E1B6E000E1C6E000E1D6E9EEF93
:1030600018F01AC01EF01BC01FF01CC020F01DC0BD
:1030700021F0200E41EF18F0D890213220321F327B
:103080001E32E82E3CEF18F01E50226E1C8EFF0EF2
:103090001A16FF0E1B16FF0E1C16000E1D16960E9E
:1030A000235E23BE58EF18F056EF18F06EEF18F0BD
:1030B0002350800A970FD8B060EF18F062EF18F035
:1030C00064EF18F027EF18F0D8901D321C321B3235
:1030D0001A32233E64EF18F086EF18F01F0E2364B7
:1030E00074EF18F076EF18F07EEF18F027EF18F075
:1030F000D8901A361B361C361D3623062350D8A40A
:1031000084EF18F086EF18F078EF18F02250D8B45A
:103110008CEF18F08EEF18F096EF18F01D1E1C1EA5
:103120001B1E1A6C000E1B221C221D221AC01AF034
:103130001BC01BF01CC01CF01DC01DF01200E4C021
:103140006AF0E5C06BF0E6C06CF0E7C06DF060C0FF
:103150006AF061C06BF062C06CF063C06DF06AC071
:1031600064F06BC065F06CC066F06DC067F0180E5F
:10317000C0EF18F00001D8906733663365336433CD
:10318000E82EBAEF18F06451686F696B68516911E5
:10319000D8A4CDEF18F0CFEF18F0EFEF18F0D890DB
:1031A0006A35646F6B35656F6C35666F6D35676F4B
:1031B0006451651166116711D8A4E1EF18F0E3EFCF
:1031C00018F0E9EF18F0000E616F020E606F1EEF4D
:1031D00019F0000E616F030E606F1EEF19F0682981
:1031E0006911D8A4F6EF18F0F8EF18F01AEF19F0FB
:1031F0006AC064F06BC065F06CC066F06DC067F0CB
:10320000090ED8906437653766376737E82E01EFC7
:1032100019F06451651166116711D8B412EF19F0F5
:1032200015EF19F0010E16EF19F0000E606F616BCB
:103230001EEF19F0000E616F040E606F12000001A6
:10324000646F000E0001666F000E656F65C062F06E
:1032500064C063F0622B2FEF19F0D8906333622FB4
:103260002DEF19F0010E00016317633B6347825095
:103270006319DF0B6319826E65C062F060C063F092
:10328000622B45EF19F0D8906333622F43EF19F0AA
:10329000010E00016317633B82506319EF0B631942
:1032A000826E65C062F061C063F0622B5AEF19F064
:1032B000D8906333622F58EF19F0010E00016317A5
:1032C00063476347634782506319F70B6319826E44
:1032D000828C530EE82EFED70000829C530EE82EFF
:1032E000FED700000001654B662B66BF81EF19F029
:1032F000665109E1080E655DD8A081EF19F083EFF2
:1033000019F026EF19F0828E530EE82EFED700003A
:10331000829E1200056E000E076E000E066E06C03D
:1033200003F005C004F0032A98EF19F0D890043296
:10333000032E96EF19F0010E0416043A044682504B
:103340000418DF0B0418826E06C003F001C004F0FD
:10335000032AADEF19F0D8900432032EABEF19F029
:10336000010E0416043A82500418EF0B0418826E02
:1033700006C003F002C004F0032AC1EF19F0D89090
:103380000432032EBFEF19F0010E04160446044662
:10339000044682500418F70B0418826E828C530E78
:1033A000E82EFED70000829C530EE82EFED70000C8
:1033B000064A072A07BEE6EF19F0075009E1080E92
:1033C000065CD8A0E6EF19F0E8EF19F08FEF19F0DE
:1033D000828E530EE82EFED70000829E120000015E
:1033E00062516311D8B4F7EF19F0F9EF19F002EF59
:1033F0001AF062516311D8A400EF1AF002EF1AF02C
:1034000007EF1AF060514AEC1FF04CEF1AF020EE73
:1034100009F06251D9266351DA22DE50DE10D8B4A9
:1034200014EF1AF016EF1AF031EF1AF020EE09F04F
:103430006251D9266351DA2210EE02F06251E12680
:103440006351E222DE50E65CE650800A686FDE508F
:10345000800A6859D8B02FEF1AF031EF1AF04CEF0C
:103460001AF020EE02F06251D9266351DA22DF50C1
:10347000646F62C0D9FF63C0DAFFDF506425D96E84
:10348000DA6A60C0DFFF20EE02F06251D926635194
:10349000DA22DE2A000EDD221200000E0001601585
:1034A000686F000E6115696F800E62156A6F7F0E7E
:1034B00063156B6F685169116A116B11D8A463EFC2
:1034C0001AF065EF1AF06DEF1AF0000E606F000E43
:1034D000616F000E626F000E636F000E6415686FFF
:1034E000000E6515696F800E66156A6F7F0E671591
:1034F0006B6F685169116A116B11D8A482EF1AF0D1
:1035000084EF1AF08CEF1AF0000E646F000E656FF6
:10351000000E666F000E676F645160190FE1655110
:1035200061190CE16651621909E167516319D8B458
:103530009CEF1AF09EEF1AF0A1EF1AF0D890A2EFCC
:103540001AF0D8801200000E0001676F000E666F3F
:103550006051D96EDA6ADFCFF6FF030EF76E08000E
:10356000F5502A0AD8A4B7EF1AF0B9EF1AF0DFEF36
:103570001AF06051D96EDA6ADF2A61C0D9FF62C0E1
:10358000DAFF020EDF26DF5CD96EDA6ADECF66F084
:10359000DECF67F0F2EF1AF00A0E6603F3CF63F0A6
:1035A000F4CF64F06703F350642765516325666FB9
:1035B000000E6421676F6051D96EDA6ADF2A6051AC
:1035C000D96EDA6ADFCFF6FF030EF76E0800F5500A
:1035D000D00F656F090E6565F0EF1AF0F2EF1AF083
:1035E000CCEF1AF066C060F067C061F01200000E08
:1035F0000001666F000E656F1AEF1BF00001655148
:103600006125636F66516221646F63C0F6FF64C019
:10361000F7FFF86A020EF76403D00800F55005D0F2
:10362000F6CFE1FFF7CFE2FFE750F8EC1EF0000124
:10363000654B662B65516125636F66516221646F2E
:1036400063C0F6FF64C0F7FFF86A020EF76403D0A8
:103650000800F55005D0F6CFE1FFF7CFE2FFE750C5
:103660000009D8A436EF1BF038EF1BF0FEEF1AF07C
:103670001200000E076E000E066E59EF1BF006508A
:103680000224046E07500320056E04C0F6FF05C037
:10369000F7FFF86A020EF76403D00800F55005D072
:1036A000F6CFE1FFF7CFE2FFE75004EC1FF0064A48
:1036B000072A06500224046E07500320056E04C03A
:1036C000F6FF05C0F7FFF86A020EF76403D00800A2
:1036D000F55005D0F6CFE1FFF7CFE2FFE750000944
:1036E000D8A475EF1BF077EF1BF03FEF1BF0120033
:1036F000000E0001666F000E656F62516311D8B451
:1037000084EF1BF086EF1BF0AEEF1BF0010E646F31
:103710008EEF1BF0D89062376337642B63AF93EF63
:103720001BF095EF1BF08AEF1BF0D89065376637DA
:103730006251605D63516159D8A0A1EF1BF0A3EF06
:103740001BF0A8EF1BF06251605F6351615B658104
:10375000D89063336233642F95EF1BF065C060F03F
:1037600066C061F01200000E066E000E056E03507A
:103770000410D8B4BEEF1BF0C0EF1BF0E8EF1BF055
:10378000010E076EC8EF1BF0D89003360436072AE7
:1037900004AECDEF1BF0CFEF1BF0C4EF1BF0D890C1
:1037A000053606360350015C04500258D8A0DBEF02
:1037B0001BF0DDEF1BF0E2EF1BF00350015E045045
:1037C000025A0580D89004320332072ECFEF1BF047
:1037D00005C001F006C002F01200000175BFF5EF50
:1037E0001BF0F3EF1BF0F9EF1BF0000E756F000EEE
:1037F000746F000E786F000E776F0CEF1CF0000EE8
:10380000616F200E606F70C062F071C063F0EFEC0A
:1038100019F00001774B782B7451775D7851800A4D
:10382000766F7551800A7659D8A019EF1CF01BEFFE
:103830001CF0FFEF1BF072C069F073C06AF070C03B
:103840006BF071C06CF0E1EC1DF0120000016251F0
:103850006311D8B42EEF1CF030EF1CF054EF1CF0C5
:10386000010E646F38EF1CF0D89062376337642B19
:1038700063AF3DEF1CF03FEF1CF034EF1CF06251E2
:10388000605D63516159D8A048EF1CF04AEF1CF00D
:103890004EEF1CF06251605F6351615BD8906333FF
:1038A0006233642F3FEF1CF060C060F061C061F0D4
:1038B000120003500410D8B460EF1CF062EF1CF04B
:1038C00086EF1CF0010E056E6AEF1CF0D8900336EF
:1038D0000436052A04AE6FEF1CF071EF1CF066EFA2
:1038E0001CF00350015C04500258D8A07AEF1CF081
:1038F0007CEF1CF080EF1CF00350015E0450025A74
:10390000D89004320332052E71EF1CF001C001F093
:1039100002C002F012003C5005EC16F03F6E380475
:10392000D8A495EF1CF097EF1CF0ACEF1CF0000151
:10393000F905D8B49EEF1CF0A0EF1CF0A9EF1CF025
:10394000020EF919D8A4A7EF1CF0A9EF1CF0ACEFF8
:103950001CF03F5080093F6E3B5005EC16F03E6E68
:103960003A5005EC16F03D6E3EC060F03DC061F08F
:103970003F501FEC19F012003C508EEC16F03F6ED9
:103980003804D8A4C6EF1CF0C8EF1CF0DDEF1CF023
:103990000001F905D8B4CFEF1CF0D1EF1CF0DAEF3D
:1039A0001CF0020EF919D8A4D8EF1CF0DAEF1CF0C5
:1039B000DDEF1CF03F5080093F6E3B508EEC16F05F
:1039C0003E6E3A508EEC16F03D6E3EC001F03DC0AA
:1039D00002F03F508AEC19F01200000163BFF3EFD0
:1039E0001CF0F5EF1CF0FFEF1CF060C060F061C050
:1039F00061F062C062F063C063F018EF1DF060C058
:103A000064F061C065F062C066F063C067F0641F77
:103A1000651F661F671F642B000E652366236723DF
:103A200064C060F065C061F066C062F067C063F0BA
:103A30001200900EF66E3E0EF76E000EF86E00EE5F
:103A40004EF010EE04F00900F5CFEEFFE550E15026
:103A5000FAE101EE00F0500EEE6AE806FDE100EE3C
:103A6000E4F01B0EEE6AE806FDE100EE2CF0220EFB
:103A7000EE6AE806FDE152905292000EF86E0001E7
:103A80000DEF0DF062C069F063C06AF060C067F0CE
:103A900061C068F05CEF1DF069C0D9FF6AC0DAFF51
:103AA000DF50666F694B6A2B67C0D9FF68C0DAFFC9
:103AB00066C0DFFF674B682B00016407D8A065076D
:103AC000642906E16529D8A468EF1DF06AEF1DF0AE
:103AD0004CEF1DF012002AEC1FF0A00EB5EC1EF00A
:103AE00062C060F063C061F042EC1FF0416E62C0E2
:103AF00060F063C061F045EC1FF0406E4150B5ECE2
:103B00001EF04050B5EC1EF000016451B5EC1EF003
:103B100021EC1FF0040E0001656F3D0EE82EFED76C
:103B2000652FFCD700D0120062C060F063C061F066
:103B300042EC1FF0416E62C060F063C061F045EC82
:103B40001FF0406E2AEC1FF0A00EB5EC1EF04150A5
:103B5000B5EC1EF04050B5EC1EF033EC1FF0A10E9A
:103B6000B5EC1EF0010E86EC1EF00001646F21EC36
:103B70001FF0000164511200D6C0D9F0CDEF1DF046
:103B8000D4C0C8F0D5C0C9F0D90E0001CA6FD7C0E3
:103B9000CBF0D8C0CCF038EC14F0D9C0F6FF030E4F
:103BA000F76E0800F5500009D8A4D9EF1DF0DBEF3F
:103BB0001DF0C0EF1DF0000E0001D56F000ED46F98
:103BC0001200000E00016F6F000E6E6FF4EF1DF01B
:103BD0006DC060F0616B6BC062F06CC063F0EFECC5
:103BE00019F000016E4B6F2B6E516925D96E6F5124
:103BF0006A21DA6EDF506D6F6D51D8A402EF1EF0AE
:103C000004EF1EF0E8EF1DF01200000E00018B1B08
:103C1000000E8C1B000E8D1B800E8E1B87C060F06B
:103C200088C061F089C062F08AC063F08BC064F024
:103C30008CC065F08DC066F08EC067F08AEC06F02F
:103C400060C087F061C088F062C089F063C08AF00C
:103C50001200DC0E0101506FDAC051F1000E546FFA
:103C6000000E536F000E5B6F000E5A6F510E000175
:103C7000D46F010ED56FDBC0D6F0500ED76F010E9A
:103C8000D86FBCEC1DF00001DA5101015325D96E4B
:103C9000DA6ADF6A120060C064F061C065F000019A
:103CA000622B6205636F63C0F6FF030EF76E64C09C
:103CB000D9FF65C0DAFF644B652B0800F5CFDFFF45
:103CC000DF50D8A466EF1EF068EF1EF04FEF1EF035
:103CD000120000016051611162116311D8B473EFD9
:103CE0001EF075EF1EF07DEF1EF0000E601B000E43
:103CF000611B000E621B800E631B60C060F061C020
:103D000061F062C062F063C063F012000001606F96
:103D1000C586C7A08EEF1EF090EF1EF089EF1EF053
:103D2000C9CF42F0000160B102D0C59A01D0C58A66
:103D3000C588C5B89EEF1EF0A0EF1EF099EF1EF0EB
:103D400042501200010E0001FE6FC282C2B2ABEF00
:103D50001EF0ADEF1EF0A6EF1EF0C4500001606F24
:103D6000C350F66F60C0F7F012000001606F60C0D2
:103D7000C9FFC7B0BEEF1EF0C0EF1EF0B9EF1EF0D6
:103D8000C5BCC5EF1EF0C7EF1EF0C0EF1EF012005D
:103D9000010E0001FE6FC282C2B2D1EF1EF0D3EF5E
:103DA0001EF0CCEF1EF0C450016EC3500001F66F40
:103DB00001C0F7F01200B896B890B898B89E0C0EF3
:103DC000AF6EAC94AC98AC9CAB8EAC8AAB98AC9616
:103DD000938E938A1200350ECD6E000ECF6E000EBC
:103DE000CE6E9E909D80000ECF6E000ECE6E1200A5
:103DF0000001606FACA2FFEF1EF001EF1FF0FAEFC1
:103E00001EF060C0ADFF1200016EACA20AEF1FF001
:103E10000CEF1FF005EF1FF001C0ADFF12009388FB
:103E2000938C280EC66E040EC86EC76AC56A12004F
:103E3000F18AF188F086F088F09CF09EF090F09284
:103E40001200C584C5B427EF1FF029EF1FF022EF41
:103E50001FF01200C580C5B030EF1FF032EF1FF029
:103E60002BEF1FF01200C582C5B239EF1FF03BEFF8
:103E70001FF034EF1FF01200C16A0D0EC26EAF0EBC
:103E8000C06E120000016051120000016151120069
:063E90000A28A03B12000D
:020000040030CA
:0E00000000E81F1EFF8881FF03C003E00340DD
:00000001FF
