:0400000033EF01F0E9
:100008004E82E1CF24F0E2CF25F0F3CF26F0F4CFF3
:1000180027F0F6CF28F0F7CF29F0F8CF2AF0F5CF60
:100028002BF09EA01AEF00F01CEF00F04BEF00F051
:100038009E90000ECF6E000ECE6E0001F905D8B46A
:1000480028EF00F02AEF00F033EF00F0020EF91964
:10005800D8A431EF00F033EF00F041EF00F03F2A71
:10006800380E3F643AEF00F03CEF00F04BEF00F041
:100078003F6AC6EC1EF04BEF00F0070EF919D8A442
:1000880048EF00F04AEF00F04BEF00F0897AF0B04B
:1000980050EF00F052EF00F059EF00F0F0A257EFE8
:1000A80000F059EF00F021EF01F02C4A2D2AF0A2C0
:1000B80060EF00F062EF00F0CDEF00F0210E2C5C55
:1000C800030E2D58D8A06BEF00F06DEF00F0CDEFC8
:1000D80000F0F092010E356E010E346E000E2D6E9A
:1000E800000E2C6EA9EF00F0010EF96F000EF36FF1
:1000F800000EF26FFA51D8A484EF00F086EF00F0FA
:1001080005EF01F0C6EC1EF005EF01F0020EF96FE5
:10011800000EF36F000EF26F05EF01F0030EF96F9A
:10012800000EF36F000EF26F010E026E0250D8A49B
:10013800030E036E37EC1BF005EF01F0040EF96FA8
:1001480005EF01F0F96B05EF01F00001F951000A24
:10015800D8B478EF00F0010AD8B48AEF00F0030AA7
:10016800D8B492EF00F0010AD8B4A2EF00F0070A61
:10017800D8B4A6EF00F0010AD8B4A6EF00F0030A3D
:10018800D8B4A6EF00F0010AD8B4A6EF00F005EF46
:1001980001F0F0A0D2EF00F0D4EF00F005EF01F08D
:1001A800210E2C5C030E2D58D8A0DDEF00F0DFEFF8
:1001B80000F005EF01F0F090356A010E346E000E84
:1001C8002D6E000E2C6EF5EF00F0050EF96F05EFA1
:1001D80001F0060EF96F05EF01F0070EF96F05EF54
:1001E80001F00001F951040AD8B4E9EF00F0010A5E
:1001F800D8B4EDEF00F0030AD8B4F1EF00F005EF42
:1002080001F00001FA05D8A40CEF01F00EEF01F09F
:100218001FEF01F02D5007E10A0E2C5CD8B017EF44
:1002280001F019EF01F01FEF01F00DEC12F0BAEC3C
:100238001CF021EF01F0010EFA6F2BC0F5FF2AC068
:10024800F8FF29C0F7FF28C0F6FF27C0F4FF26C033
:10025800F3FF25C0E2FF24C0E1FF4E92110017EF23
:020268001DF087
:10030000005354415254200D0A00454E44200D0A1A
:0F03100000252E326600696E66006E616E000079
:100320000001BD6B95C0BEF096C0BFF097C0C0F095
:1003300098C0C1F0C1BFA1EF01F09FEF01F0B5EF90
:1003400001F0010EBD6FBEC060F0BFC061F0C0C063
:1003500062F0C1C063F067EC1EF060C0BEF061C027
:10036000BFF062C0C0F063C0C1F0000E0001C36FF7
:10037000000EC26FEEC0ADF0EFC0AEF0BD51D8B40C
:10038000C4EF01F0C6EF01F0DAEF01F0BD51D8A4DF
:10039000CCEF01F0CEEF01F0D4EF01F0000EA36F2F
:1003A0002B0EA26FD8EF01F0000EA36F2D0EA26FDF
:1003B000A2C0BDF0BEC060F0BFC061F0C0C062F0BE
:1003C000C1C063F09DEC18F0000160056111D8A474
:1003D000ECEF01F0EEEF01F01EEF02F0BD51D8B4EA
:1003E000F4EF01F0F6EF01F0FFEF01F0BDC000F116
:1003F000AD07D8A0AE07000EC36F010EC26F000E8E
:10040000C225606F010EC321616F160E626F49EC49
:100410001EF00001FD0EAD27FF0EAE2393C070F05D
:1004200094C071F0000E726F010E736FADC074F066
:10043000AEC075F0EBEC1BF089EF06F0BEC060F0CB
:10044000BFC061F0C0C062F0C1C063F09DEC18F0A5
:10045000000160516111D8A430EF02F032EF02F0D8
:100460004FEF02F0BD51D8B438EF02F03AEF02F08E
:1004700043EF02F0BDC000F1AD07D8A0AE07000EFB
:10048000C36F010EC26F000EC225606F010EC32143
:10049000616F1A0E626F49EC1EF009EF02F0000E58
:1004A000C46F000EC56F800EC66F3F0EC76F000E83
:1004B000AC6F000EAB6FBEC060F0BFC061F0C0C0DB
:1004C00062F0C1C063F0000E646F000E656F000E35
:1004D000666F000E676F4BEC1AF00001D8B073EF37
:1004E00002F075EF02F057EF03F081EF02F0AFC0BA
:1004F000C4F0B0C0C5F0B1C0C6F0B2C0C7F0AB4BDD
:10050000AC2BC4C06EF0C5C06FF0C6C070F0C7C0E1
:1005100071F0000E726F000E736F200E746F410E3B
:10052000756FE6EC08F06EC0AFF06FC0B0F070C051
:10053000B1F071C0B2F00001AF51BE5D606FB0515B
:10054000BF59616FB151C059626FB251C159636FE8
:10055000EBEC1CF0000163BFB9EF02F063516211D4
:10056000611109E1020E605DD8A0B9EF02F0BBEFA6
:1005700002F077EF02F0AFC087F0B0C088F0B1C0F2
:1005800089F0B2C08AF0BEC08BF0BFC08CF0C0C092
:100590008DF0C1C08EF097EC17F00001D8A0D3EF1A
:1005A00002F0D5EF02F077EF02F0C451BE5D606F4C
:1005B000C551BF59616FC651C059626FC751C1590A
:1005C000636FEBEC1CF0000163BFF4EF02F06351CA
:1005D0006211611107E1020E605DD8B0F2EF02F026
:1005E000F4EF02F03DEF03F0C4C0BEF0C5C0BFF0B1
:1005F000C6C0C0F0C7C0C1F057EF03F0C4C060F080
:10060000C5C061F0C6C062F0C7C063F0000E646F81
:10061000000E656F200E666F410E676F1DEC0FF0C8
:1006200060C0C4F061C0C5F062C0C6F063C0C7F06E
:100630000001AB07D8A0AC07C451BE5D606FC551C7
:10064000BF59616FC651C059626FC751C159636FBD
:10065000EBEC1CF0000163BF3BEF03F06351621150
:10066000611107E1020E605DD8B039EF03F03BEF96
:1006700003F03DEF03F0F4EF02F0BEC087F0BFC01F
:1006800088F0C0C089F0C1C08AF0C4C08BF0C5C07A
:100690008CF0C6C08DF0C7C08EF097EC17F000014B
:1006A000D8A055EF03F057EF03F0FEEF02F099C02A
:1006B000A5F0A5C0A6F0F1BF60EF03F062EF03F074
:1006C00068EF03F0F0C09EF0F1C09FF06CEF03F014
:1006D000000E9F6F060E9E6F9EC0A9F09FC0AAF0ED
:1006E000A94BAA2B660EA619D8A479EF03F07BEFCD
:1006F00003F09BEF03F0ACBF82EF03F080EF03F059
:100700008EEF03F0000EC46F000EC56F800EC66F33
:100710003F0EC76F000EAC6F000EAB6F670EA519D2
:10072000D8B495EF03F097EF03F09BEF03F0AB51D4
:10073000A927AC51AA23000EB46F000EB36FBEC040
:10074000B5F0BFC0B6F0C0C0B7F0C1C0B8F0C4C00B
:10075000AFF0C5C0B0F0C6C0B1F0C7C0B2F02DEF69
:1007600004F0B5C060F0B6C061F0B7C062F0B8C0C8
:1007700063F0C4C064F0C5C065F0C6C066F0C7C011
:1007800067F01DEC0FF060C079F061C07AF062C0D4
:100790007BF063C07CF02BEC13F079C0B9F07AC029
:1007A000BAF07BC0BBF07CC0BCF0B9C087F0BAC067
:1007B00088F0BBC089F0BCC08AF013EC17F087C08A
:1007C000A7F088C0A8F0B5C087F0B6C088F0B7C061
:1007D00089F0B8C08AF0B9C072F0BAC073F0BBC07B
:1007E00074F0BCC075F0C4C06EF0C5C06FF0C6C078
:1007F00070F0C7C071F0E6EC08F06EC08BF06FC00F
:100800008CF070C08DF071C08EF003EC1EF087C0CC
:10081000B5F088C0B6F089C0B7F08AC0B8F0C4C0DF
:1008200060F0C5C061F0C6C062F0C7C063F0000EE2
:100830000001646F000E656F200E666F410E676FDA
:100840001DEC0FF060C0C4F061C0C5F062C0C6F01E
:1008500063C0C7F00001B34BB42BA951B35DB451D1
:10086000800A9A6FAA51800A9A59D8A03AEF04F0E8
:100870003CEF04F0B1EF03F0C4C06EF0C5C06FF000
:10088000C6C070F0C7C071F0000E726F000E736FBB
:10089000A00E746F400E756FE6EC08F06EC0B9F0F4
:1008A0006FC0BAF070C0BBF071C0BCF0B5C087F0CB
:1008B000B6C088F0B7C089F0B8C08AF0B9C08BF074
:1008C000BAC08CF0BBC08DF0BCC08EF097EC17F0B6
:1008D0000001D8B06EEF04F070EF04F07AEF04F08E
:1008E000000EB96F000EBA6F000EBB6F000EBC6F2A
:1008F000A3EF04F0B5C060F0B6C061F0B7C062F01D
:10090000B8C063F0B9C064F0BAC065F0BBC066F0AF
:10091000BCC067F04BEC1AF00001D8A092EF04F0D5
:1009200094EF04F0A3EF04F0A7B199EF04F09BEF6C
:1009300004F0A3EF04F0000EB96F000EBA6F000EC2
:10094000BB6F000EBC6FBEC060F0BFC061F0C0C026
:1009500062F0C1C063F0B9C064F0BAC065F0BBC05A
:1009600066F0BCC067F08AEC06F060C0B5F061C00C
:10097000B6F062C0B7F063C0B8F0B5C087F0B6C0DB
:1009800088F0B7C089F0B8C08AF0000E0001726F1D
:10099000000E736F200E746F410E756FAFC06EF056
:1009A000B0C06FF0B1C070F0B2C071F0E6EC08F00A
:1009B0006EC08BF06FC08CF070C08DF071C08EF087
:1009C00097EC17F00001D8A0E8EF04F0EAEF04F08C
:1009D00012EF05F0AB4BAC2BAFC06EF0B0C06FF0B8
:1009E000B1C070F0B2C071F0000E726F000E736F84
:1009F000200E746F410E756FE6EC08F06EC0AFF01C
:100A00006FC0B0F070C0B1F071C0B2F0660E0001FE
:100A1000A619D8A40EEF05F010EF05F012EF05F0BF
:100A2000A94BAA2BAFC0C4F0B0C0C5F0B1C0C6F08E
:100A3000B2C0C7F0ABC09CF0ACC09DF0A46B000E80
:100A4000A16F000EA06F000EB46F000EB36F0FEF1A
:100A500006F0B5C060F0B6C061F0B7C062F0B8C0D3
:100A600063F0C4C064F0C5C065F0C6C066F0C7C01E
:100A700067F01DEC0FF060C079F061C07AF062C0E1
:100A80007BF063C07CF02BEC13F079C0B9F07AC036
:100A9000BAF07BC0BBF07CC0BCF0B9C087F0BAC074
:100AA00088F0BBC089F0BCC08AF013EC17F00001DD
:100AB00088BF66EF05F0885107E10A0E875DD8B060
:100AC00064EF05F066EF05F076EF05F0B9C087F04A
:100AD000BAC088F0BBC089F0BCC08AF013EC17F034
:100AE00087C0A7F088C0A8F07AEF05F0000EA86FC5
:100AF000090EA76F0001A451D8A481EF05F083EF80
:100B000005F0ABEF05F09DBF8AEF05F088EF05F02B
:100B1000ABEF05F0000EC225D96E010EC321DA6ECF
:100B20002E0EDF6EC24BC32BAD07D8A0AE07010E51
:100B3000A46FABEF05F0000EC225D96E010EC321E4
:100B4000DA6E300EDF6EC24BC32BAD07D8A0AE07F6
:100B5000A007D8A0A107A051A111D8A4B2EF05F019
:100B6000B4EF05F09BEF05F0000EC225D96E010E23
:100B7000C321DA6EA751300FDF6EC24BC32BAD0716
:100B8000D8A0AE07B5C087F0B6C088F0B7C089F06E
:100B9000B8C08AF0B9C072F0BAC073F0BBC074F0CC
:100BA000BCC075F0C4C06EF0C5C06FF0C6C070F0B8
:100BB000C7C071F0E6EC08F06EC08BF06FC08CF02F
:100BC00070C08DF071C08EF003EC1EF087C0B5F0E0
:100BD00088C0B6F089C0B7F08AC0B8F0C4C060F071
:100BE000C5C061F0C6C062F0C7C063F0000E00016E
:100BF000646F000E656F200E666F410E676F1DEC0F
:100C00000FF060C0C4F061C0C5F062C0C6F063C040
:100C1000C7F000019C07D8A09D07B34BB42BA95186
:100C2000B35DB451800A9A6FAA51800A9A59D8B01C
:100C30001CEF06F01EEF06F02CEF06F0C3BF2AEF04
:100C400006F0C35109E14B0EC25DD8A02AEF06F0B1
:100C50002CEF06F029EF05F0000EB46F4F0EB36FC6
:100C6000000EB325D96E010EB421DA6EDF6A000ED4
:100C70009A6F010E9B6FC2519A5FC3519B5BB35138
:100C80009A25606FB4519B21616F000E626F010E57
:100C9000636FC2C064F0C3C065F040EC1DF000019A
:100CA000C251B35DC26FC351B459C36FBD51D8A413
:100CB0005CEF06F05FEF06F0010E60EF06F0000E4D
:100CC000B36FB46BBD51D8B468EF06F06AEF06F0AD
:100CD00075EF06F0C207D8A0C307000EC225D96E73
:100CE000010EC321DA6EBDC0DFFFB351AD5FB45159
:100CF000AE5B93C070F094C071F0000EC225726FAD
:100D0000010EC321736FADC074F0AEC075F0EBEC93
:100D10001BF0120000016351800B6C6F635163255F
:100D20006E6F62AF96EF06F098EF06F099EF06F05F
:100D30006E816E51D8B49FEF06F0A1EF06F0B5EFCB
:100D400006F06E29D8A4A7EF06F0A9EF06F0B1EFE0
:100D500006F0000E606F000E616F000E626F000EF5
:100D6000636F628F636BBDEF06F0000E606F000E65
:100D7000616F000E626F000E636F6751800B6D6FC5
:100D80006C516D19D8B4C7EF06F0C9EF06F0CAEF81
:100D900006F06C8D675167256D6F66AFD2EF06F078
:100DA000D4EF06F0D5EF06F06D816D51D8B4DBEFCE
:100DB00006F0DDEF06F0F1EF06F06D29D8A4E3EFC1
:100DC00006F0E5EF06F0EDEF06F0000E646F000EA2
:100DD000656F000E666F000E676F668F676BF9EFC9
:100DE00006F0000E646F000E656F000E666F000E59
:100DF000676F6E516D5DD8B000EF07F002EF07F03E
:100E000029EF07F06CAD07EF07F009EF07F00BEFE4
:100E100007F0800E6C1B6EC06FF06DC06EF06FC07F
:100E20006DF060C06FF064C060F06FC064F061C0CE
:100E30006FF065C061F06FC065F062C06FF066C0B2
:100E400062F06FC066F063C06FF067C063F06FC0A0
:100E500067F06F6B6E516DC068F0696B685F000E74
:100E6000695B69BF3DEF07F0695109E11A0E685DE2
:100E7000D8A03DEF07F03FEF07F076EF07F06051A5
:100E8000611162116311D8A448EF07F04BEF07F02E
:100E9000010E4CEF07F0000E6F6F000E606F000E3A
:100EA000616F000E626F000E636F6DC06EF07FEFBA
:100EB00007F06FA15EEF07F060EF07F066EF07F055
:100EC000D8906F3101096F6F68EF07F0D8906F33DA
:100ED00060A16DEF07F06FEF07F070EF07F06F8F15
:100EE000633563336233613360336E2B6D516E5DF6
:100EF000D8A07DEF07F07FEF07F059EF07F06CBD4A
:100F000084EF07F086EF07F0C6EF07F06E51D8A424
:100F10008CEF07F08EEF07F098EF07F0000E606F90
:100F2000000E616F000E626F000E636FE5EF08F058
:100F300064516027655161236651622367516323C1
:100F400063A1A5EF07F0A7EF07F053EF08F06FA13B
:100F5000ACEF07F0AEEF07F0B4EF07F0D8906F31C9
:100F600001096F6FB6EF07F0D8906F3360A1BBEF48
:100F700007F0BDEF07F0BEEF07F06F8F6335633307
:100F80006233613360336E2B53EF08F06451605D60
:100F900065516159665162596351800A686F6751A2
:100FA000800A6859D8B0D7EF07F0D9EF07F004EFFF
:100FB00008F06051645D686F61516559696F6251F5
:100FC00066596A6F635167596B6FFF0E6825606FD2
:100FD000FF0E6921616FFF0E6A21626FFF0E6B21A8
:100FE000636F800E6C1B6F6D6F51D8A4FAEF07F022
:100FF000FCEF07F00CEF08F0010E6027000E6123F4
:10100000622363230CEF08F06451605F6551615BFC
:101010006651625B6751635B6051611162116311DC
:10102000D8A415EF08F017EF08F04CEF08F06F5157
:10103000D8A41DEF08F01FEF08F04CEF08F0000EE9
:10104000606F000E616F000E626F000E636FE5EF60
:1010500008F0D89060376137623763376FAF33EF8E
:1010600008F035EF08F036EF08F060816FA13BEF34
:1010700008F03DEF08F041EF08F0D8806F3743EFFC
:1010800008F0D8906F376E51D8B449EF08F04BEFA5
:1010900008F04CEF08F06E0762AF51EF08F053EF25
:1010A00008F029EF08F06D6B6FAF59EF08F05BEFB8
:1010B00008F073EF08F06FC068F07F0E6817D8B4BF
:1010C00064EF08F066EF08F06AEF08F0010E6D6F4C
:1010D00073EF08F060A16FEF08F071EF08F073EFA5
:1010E00008F066EF08F06D51D8B479EF08F07BEFA7
:1010F00008F0A6EF08F0010E6027000E61236223BE
:10110000632363A186EF08F088EF08F0A6EF08F0EC
:1011100060C068F061C069F062C06AF063C06BF0E3
:101120006B356B336A336933683368C060F069C00C
:1011300061F06AC062F06BC063F06E29D8B4A3EFAF
:1011400008F0A5EF08F0A6EF08F06E2B6E29D8B4D2
:10115000ACEF08F0AEEF08F0B6EF08F06E51D8A48F
:10116000B4EF08F0B6EF08F0C7EF08F0000E606FBC
:10117000000E616F000E626F000E636F6E51D8A497
:10118000C4EF08F0C6EF08F0C7EF08F06C6B6EA173
:10119000CCEF08F0CEEF08F0D1EF08F0628FD2EF7D
:1011A00008F0629FD8906E31636F6CAFDAEF08F091
:1011B000DCEF08F0DDEF08F0638F60C060F061C025
:1011C00061F062C062F063C063F01200000171510F
:1011D000800B7A6F715171257C6F70AFF2EF08F060
:1011E000F4EF08F0F5EF08F07C817C51D8B4FBEF08
:1011F00008F0FDEF08F010EF09F07C29D8A403EF08
:1012000009F005EF09F00DEF09F0000E6E6F000E0A
:101210006F6F000E706F000E716F708F18EF09F016
:10122000000E6E6F000E6F6F000E706F000E716F0C
:101230007551800B7A1B755175257B6F74AF23EF49
:1012400009F025EF09F026EF09F07B817B51D8B436
:101250002CEF09F02EEF09F041EF09F07B29D8A41B
:1012600034EF09F036EF09F03EEF09F0000E726F2F
:10127000000E736F000E746F000E756F748F49EF60
:1012800009F0000E726F000E736F000E746F000E87
:10129000756F7B51D8B44FEF09F051EF09F059EF5A
:1012A00009F07C51D8A457EF09F059EF09F063EF2A
:1012B00009F0000E6E6F000E6F6F000E706F000E63
:1012C000716FF9EF0AF074516E03F3CF85F0F4CF2C
:1012D00086F085517D6F7E6B7F6B806B8651816F51
:1012E000826B836B846B73516F03F3CF85F0F4CF04
:1012F00086F085517D27000E7E237F238023865133
:101300008127000E82238323842372517003F3CF3D
:1013100085F0F4CF86F085517D27000E7E237F2354
:10132000802386518127000E8223832384237FC05C
:1013300080F07EC07FF07DC07EF07D6B72516F03C8
:10134000F3CF85F0F4CF86F085517D2786517E233B
:10135000000E7F23000E802373516E03F3CF85F0C0
:10136000F4CF86F085517D2786517E23000E7F23A2
:10137000000E80237FC080F07EC07FF07DC07EF0B5
:101380007D6B72516E03F3CF85F0F4CF86F08551FB
:101390007D2786517E23000E7F23000E802374510B
:1013A0006F03F3CF85F0F4CF86F085518127865106
:1013B0008223000E8323000E842373517003F3CF26
:1013C00085F0F4CF86F08551812786518223000E67
:1013D0008323000E842374517003F3CF85F0F4CF80
:1013E00086F08551766F8651776F786B796B78C010
:1013F00079F077C078F076C077F0766B76518127F8
:101400007751822378518323795184237DC076F0EC
:101410007EC077F07FC078F080C079F0190E16EFAB
:101420000AF0D8907933783377337633E82E11EF9A
:101430000AF076518127775182237851832379519D
:1014400084237FC080F07EC07FF07DC07EF07D6B06
:101450007B517CC076F0776B7627000E7723820E67
:101460007625856FFF0E7721866F4CEF0AF0D890B6
:10147000813782378337843780AF41EF0AF043EFFB
:101480000AF044EF0AF08181D8907D377E377F37AC
:1014900080378507D8A0860783AF51EF0AF053EF56
:1014A0000AF037EF0AF07B6B80AF59EF0AF05BEF81
:1014B0000AF07FEF0AF0FF0E7D15766FFF0E7E15A6
:1014C000776FFF0E7F15786F7F0E8015796F7651DD
:1014D000771178117911D8B470EF0AF072EF0AF031
:1014E00076EF0AF0010E7B6F7FEF0AF081A17BEFB0
:1014F0000AF07DEF0AF07FEF0AF072EF0AF07B51FD
:10150000D8B485EF0AF087EF0AF0ABEF0AF0010ECE
:101510008127000E82238323842384A192EF0AF083
:1015200094EF0AF0ABEF0AF081C076F082C077F05A
:1015300083C078F084C079F07935793378337733A4
:10154000763376C081F077C082F078C083F079C0BE
:1015500084F0854B862B86BFB6EF0AF0865108E1F2
:101560008529D8A0B6EF0AF0B8EF0AF0C2EF0AF06A
:10157000000E816F000E826F800E836F7F0E846F6E
:10158000EFEF0AF086BFCFEF0AF0865106E185053E
:10159000D8B0CDEF0AF0CFEF0AF0DAEF0AF0000E84
:1015A000816F000E826F000E836F000E846F7A6B66
:1015B000EFEF0AF085C07CF0FF0E8117FF0E821757
:1015C0007F0E8317000E84177CA1E9EF0AF0EBEF82
:1015D0000AF0ECEF0AF0838FD8907C31846F7A5157
:1015E000841381C06EF082C06FF083C070F084C03D
:1015F00071F012000450800B0D6E04500424136E21
:1016000003AE05EF0BF007EF0BF008EF0BF01380C4
:101610001350D8B40EEF0BF010EF0BF023EF0BF0DC
:101620001328D8A416EF0BF018EF0BF020EF0BF0F7
:10163000000E016E000E026E000E036E000E046EB0
:10164000038E2BEF0BF0000E016E000E026E000EEB
:10165000036E000E046E0850800B0D1A085008240B
:10166000126E07AE36EF0BF038EF0BF039EF0BF0E0
:1016700012801250D8B43FEF0BF041EF0BF054EF53
:101680000BF01228D8A447EF0BF049EF0BF051EF05
:101690000BF0000E056E000E066E000E076E000EBB
:1016A000086E078E5CEF0BF0000E056E000E066EE6
:1016B000000E076E000E086E1250D8B462EF0BF0E9
:1016C00064EF0BF06CEF0BF01350D8A46AEF0BF043
:1016D0006CEF0BF076EF0BF0000E016E000E026E59
:1016E000000E036E000E046E0CEF0DF007500102A9
:1016F000F3CF18F0F4CF19F018500E6E0F6A106A7D
:10170000116A1950146E156A166A176A0650020299
:10171000F3CF18F0F4CF19F018500E26000E0F2258
:101720001022112219501426000E152216221722FB
:1017300005500302F3CF18F0F4CF19F018500E261D
:10174000000E0F221022112219501426000E15220D
:101750001622172210C011F00FC010F00EC00FF0AB
:101760000E6A05500202F3CF18F0F4CF19F01850AA
:101770000E2619500F22000E1022000E11220650C4
:101780000102F3CF18F0F4CF19F018500E261950BB
:101790000F22000E1022000E112210C011F00FC0F7
:1017A00010F00EC00FF00E6A05500102F3CF18F0D2
:1017B000F4CF19F018500E2619500F22000E1022E7
:1017C000000E112207500202F3CF18F0F4CF19F0E7
:1017D0001850142619501522000E1622000E17223A
:1017E00006500302F3CF18F0F4CF19F01850142666
:1017F00019501522000E1622000E17220750030260
:10180000F3CF18F0F4CF19F01850096E19500A6E82
:101810000B6A0C6A0BC00CF00AC00BF009C00AF08E
:10182000096A095014260A5015220B5016220C5032
:1018300017220EC009F00FC00AF010C00BF011C043
:101840000CF0190E29EF0CF0D8900C320B320A3242
:101850000932E82E24EF0CF0095014260A50152204
:101860000B5016220C50172210C011F00FC010F0B0
:101870000EC00FF00E6A125013C009F00A6A092652
:10188000000E0A22820E0924186EFF0E0A20196E1D
:101890005FEF0CF0D890143615361636173611AEA9
:1018A00054EF0CF056EF0CF057EF0CF01480D8907A
:1018B0000E360F36103611361806D8A0190616AE99
:1018C00064EF0CF066EF0CF04AEF0CF0126A11AE08
:1018D0006CEF0CF06EEF0CF092EF0CF0FF0E0E14AC
:1018E000096EFF0E0F140A6EFF0E10140B6E7F0EA2
:1018F00011140C6E09500A100B100C10D8B483EFA1
:101900000CF085EF0CF089EF0CF0010E126E92EFE7
:101910000CF014A08EEF0CF090EF0CF092EF0CF0A6
:1019200085EF0CF01250D8B498EF0CF09AEF0CF051
:10193000BEEF0CF0010E1426000E152216221722FF
:1019400017A0A5EF0CF0A7EF0CF0BEEF0CF014C041
:1019500009F015C00AF016C00BF017C00CF00C34DB
:101960000C320B320A32093209C014F00AC015F0E9
:101970000BC016F00CC017F0184A192A19BEC9EF8F
:101980000CF0195008E11828D8A0C9EF0CF0CBEFE3
:101990000CF0D5EF0CF0000E146E000E156E800EDC
:1019A000166E7F0E176E02EF0DF019BEE2EF0CF00F
:1019B000195006E11804D8B0E0EF0CF0E2EF0CF09B
:1019C000EDEF0CF0000E146E000E156E000E166E8C
:1019D000000E176E0D6A02EF0DF018C013F0FF0E27
:1019E0001416FF0E15167F0E1616000E171613A0EE
:1019F000FCEF0CF0FEEF0CF0FFEF0CF0168ED89021
:101A00001330176E0D50171214C001F015C002F0FC
:101A100016C003F017C004F01200D380D382D3960F
:101A2000D398D39AD38C020E0001E16F450EE06F7C
:101A3000A90EE82EFED7E02FFCD7E12FFAD700D071
:101A4000080E7E6E100E926E94907E983AEC1FF007
:101A5000100EE82EFED700D0E9EC1EF00DEC1FF0C2
:101A6000949A94989496949C949E8B9A8B988B9627
:101A70008B9C8B9E9482948416EC1FF0D9EC1EF004
:101A8000F28CF28EA0EC1EF00001FE05D8A44BEF04
:101A90000DF04DEF0DF0CEEF0DF0F905D8A453EF9A
:101AA0000DF055EF0DF0CEEF0DF0898AF6C060F025
:101AB000F7C061F0626B636B000E27EC15F060C03D
:101AC0006EF061C06FF062C070F063C071F00A0E1A
:101AD0000001726F280E736FA00E746F3B0E756F4E
:101AE000E6EC08F06EC0EAF06FC0EBF070C0ECF00E
:101AF00071C0EDF00001F24BF32BF6C060F0F7C0BF
:101B000061F040EC1FF001015C6FF2C062F0F3C0C5
:101B100063F05CC164F069EC1DF00001F24BF32B43
:101B2000F6C060F0F7C061F043EC1FF001015D6F9B
:101B3000F2C062F0F3C063F05DC164F069EC1DF0C7
:101B40000001F24BF32BF2C062F0F3C063F0FE0E23
:101B5000646F69EC1DF0A40E0001F25D1F0EF359D5
:101B6000D8A0B5EF0DF0B7EF0DF0BCEF0DF0F96BAD
:101B7000000EF36F000EF26F030E0001E16F8A0E8C
:101B8000E06F550EE82EFED7E02FFCD7E12FFAD7F5
:101B900000D00001FE6B899A32EF0EF0FE05D8A44A
:101BA000D4EF0DF0D6EF0DF032EF0EF0020EF91972
:101BB000D8A4DDEF0DF0DFEF0DF032EF0EF0898AE3
:101BC000F6C060F0F7C061F0626B636B000E27EC4B
:101BD00015F060C06EF061C06FF062C070F063C05D
:101BE00071F00A0E0001726F280E736FA00E746FF1
:101BF0003B0E756FE6EC08F06EC0EAF06FC0EBF0DC
:101C000070C0ECF071C0EDF0400E0001DA6F110E03
:101C1000DB6FEAC0DCF0EBC0DDF0ECC0DEF0EDC065
:101C2000DFF027EC1EF0400E0001616F626BF5ECF7
:101C30001AF00E0E0001616F6151D8A4030E626F9D
:101C4000F5EC1AF0030E0001E16F8A0EE06F550EFD
:101C5000E82EFED7E02FFCD7E12FFAD700D0000105
:101C6000FE6B899A030EF919D8A439EF0EF03BEFF9
:101C70000EF0E3EF0EF0898AF251F311D8A443EF8E
:101C80000EF045EF0EF052EF0EF0010E616F615154
:101C9000D8A4030E626FF5EC1AF00001F24BF32B9F
:101CA000ECEF0EF0200EF25D1C0EF359D8A05BEFA6
:101CB0000EF05DEF0EF06CEF0EF00A0E616F6151E9
:101CC000D8A4030E626FF5EC1AF0000E0001F36F5A
:101CD000000EF26FECEF0EF0F2C062F0F3C063F0B2
:101CE00092EC1DF00001FD6FF24BF32BF2C062F09D
:101CF000F3C063F092EC1DF00001FC6FF24BF32B8C
:101D0000F2C062F0F3C063F092EC1DF00001FB6FD3
:101D1000F24BF32BFE0EFB19D8A491EF0EF093EFCC
:101D20000EF0DDEF0EF0FC51E06FFD51F46FE0C0FE
:101D3000F5F0F4C060F0F5C061F0626B636B000E0B
:101D400027EC15F060C06EF061C06FF062C070F0FB
:101D500063C071F00A0E0001726F280E736FA00E3F
:101D6000746F3B0E756FE6EC08F06EC0EAF06FC062
:101D7000EBF070C0ECF071C0EDF0400E0001DA6FD6
:101D8000110EDB6FEAC0DCF0EBC0DDF0ECC0DEF082
:101D9000EDC0DFF027EC1EF0400E0001616F626BBA
:101DA000F5EC1AF00E0E0001616F6151D8A4030E1C
:101DB000626FF5EC1AF0ECEF0EF01C0EF36F200ED4
:101DC000F26FECEF0EF0070EF961E9EF0EF0EBEFBA
:101DD0000EF0ECEF0EF0899A0001FA05D8A4F3EFAB
:101DE0000EF0F5EF0EF00BEF0FF08290E6EC10F036
:101DF00089EC1CF01A0E0001E16F5E0EE06F6E0EB2
:101E0000E82EFED7E02FFCD7E12FFAD70000000123
:101E1000FA6B44EF0DF08280030E0001E16F8A0E31
:101E2000E06F550EE82EFED7E02FFCD7E12FFAD752
:101E300000D044EF0DF033EF01F000016351800B4F
:101E4000706F63516325776F62AF29EF0FF02BEF4F
:101E50000FF02CEF0FF077817751D8B432EF0FF0FD
:101E600034EF0FF048EF0FF07729D8A43AEF0FF0D6
:101E70003CEF0FF044EF0FF0000E606F000E616F4B
:101E8000000E626F000E636F628F636B50EF0FF096
:101E9000000E606F000E616F000E626F000E636FC8
:101EA0006751800B701B67516725786F66AF5BEFDA
:101EB0000FF05DEF0FF05EEF0FF078817851D8B43E
:101EC00064EF0FF066EF0FF07AEF0FF07829D8A4E7
:101ED0006CEF0FF06EEF0FF076EF0FF0000E646F07
:101EE000000E656F000E666F000E676F668F676B82
:101EF00082EF0FF0000E646F000E656F000E666FCC
:101F0000000E676F6451651166116711D8A48BEFDD
:101F10000FF08DEF0FF0A5EF0FF0000E606F000EC9
:101F2000616F000E626F000E636F800E62137F0E92
:101F300063137051631360C060F061C061F062C0F0
:101F400062F063C063F0E5EF10F07751D8A4ABEF17
:101F50000FF0ADEF0FF0B7EF0FF0000E606F000E57
:101F6000616F000E626F000E636FE5EF10F0785145
:101F700077C068F0696B685F000E695B7F0E68254B
:101F8000716F000E6921726F60C06CF061C06DF0FE
:101F900062C06EF063C06FF0000E606F000E616F84
:101FA000000E626F000E636F000E736F000E746F91
:101FB000000E756F000E766F786B17EF10F078518A
:101FC000D8B4E5EF0FF0E7EF0FF0FEEF0FF0D89089
:101FD0006C376D376E376F37D8906037613762373F
:101FE000633776AFF6EF0FF0F8EF0FF0F9EF0FF081
:101FF0006081D890733774377537763764516C5D6C
:1020000065516D5966516E5967516F59D8A00BEFE4
:1020100010F00DEF10F016EF10F0768D64516C5F3C
:1020200065516D5B66516E5B67516F5B782B190E66
:1020300078651DEF10F01FEF10F0DFEF0FF06C511F
:102040006D116E116F11D8B428EF10F02AEF10F057
:1020500042EF10F0738142EF10F0D8906037613793
:102060006237633776AF37EF10F039EF10F03AEFA1
:1020700010F06081D89073377437753776377107F1
:10208000D8A0720762AF47EF10F049EF10F02DEFC4
:1020900010F0786B76AF4FEF10F051EF10F075EF56
:1020A00010F0FF0E7315686FFF0E7415696FFF0E49
:1020B00075156A6F7F0E76156B6F685169116A111D
:1020C0006B11D8B466EF10F068EF10F06CEF10F001
:1020D000010E786F75EF10F060A171EF10F073EFE3
:1020E00010F075EF10F068EF10F07851D8B47BEF76
:1020F00010F07DEF10F0A1EF10F0010E6027000E40
:1021000061236223632363A188EF10F08AEF10F04C
:10211000A1EF10F060C068F061C069F062C06AF0C1
:1021200063C06BF06B356B336A336933683368C0F7
:1021300060F069C061F06AC062F06BC063F0714B1F
:10214000722B72BFACEF10F0725108E17129D8A068
:10215000ACEF10F0AEEF10F0B9EF10F0000E726FB0
:102160007169000E606F000E616F000E626F000EED
:10217000636F72BFC6EF10F0725106E17105D8B0FF
:10218000C4EF10F0C6EF10F0D3EF10F0000E726F36
:10219000000E716F000E606F000E616F000E626FB7
:1021A000000E636F706B71C077F077A1DAEF10F0FB
:1021B000DCEF10F0DFEF10F0628FE0EF10F0629FC5
:1021C000D8907731636F99EF0FF012000001F95149
:1021D000D8A4EDEF10F0EFEF10F0F7EF10F00B0ECA
:1021E000386E410E376E0B0E366E0CEF12F0F9059D
:1021F000D8A4FDEF10F0FFEF10F05CEF11F0000E2F
:10220000726F000E736FC80E746F420E756FEAC066
:102210006EF0EBC06FF0ECC070F0EDC071F0E6EC6A
:1022200008F06EC087F06FC088F070C089F071C090
:102230008AF013EC17F087C032F088C033F032C058
:1022400060F033C061F0000E0001636F640E626FD6
:1022500024EC1CF060C030F061C031F032C060F09E
:1022600033C061F0000E0001636F640E626F76ECA4
:102270001BF060C02EF061C02FF02EC038F030C0CF
:1022800060F031C061F0000E0001636F0A0E626FF2
:1022900076EC1BF000016051376E30C060F031C049
:1022A00061F0000E636F0A0E626F24EC1CF00001F7
:1022B0006051366E0CEF12F0020EF919D8A463EFDC
:1022C00011F065EF11F0B7EF11F0000E726F000E14
:1022D000736FC80E746F420E756FEAC06EF0EBC07C
:1022E0006FF0ECC070F0EDC071F0E6EC08F06EC07D
:1022F00087F06FC088F070C089F071C08AF013EC6D
:1023000017F087C032F088C033F032C060F033C0BD
:1023100061F0000E0001636F640E626F24EC1CF02C
:1023200060C030F061C031F032C060F033C061F0A5
:10233000000E0001636F640E626F76EC1BF060C0EC
:102340002EF061C02FF02EC038F030C060F031C0E8
:1023500061F0000E0001636F0A0E626F76EC1BF0F5
:1023600000016051376E430E366E0CEF12F0030E13
:10237000F919D8A4BEEF11F0C0EF11F0C8EF11F0B9
:102380000B0E386E430E376E0B0E366E0CEF12F0DE
:10239000040EF919D8A4CFEF11F0D1EF11F0D8EF56
:1023A00011F0530E386E376A0B0E366E0CEF12F0CA
:1023B000050EF919D8A4DFEF11F0E1EF11F0E9EF04
:1023C00011F0530E386E010E376E0B0E366E0CEF99
:1023D00012F0060EF919D8A4F0EF11F0F2EF11F097
:1023E000FAEF11F0530E386E020E376E0B0E366E8A
:1023F0000CEF12F0070EF919D8A401EF12F003EF59
:1024000012F00BEF12F0430E386E4C0E376E720E58
:10241000366E0CEF12F0000012000001F951D8A442
:1024200014EF12F016EF12F01EEF12F00B0E386ED2
:10243000410E376E0B0E366E2AEF13F0F905D8A455
:1024400024EF12F026EF12F07EEF12F0000E056E70
:10245000000E066EC80E076E420E086EEAC001F04E
:10246000EBC002F0ECC003F0EDC004F0FAEC0AF0AF
:1024700001C01AF002C01BF003C01CF004C01DF024
:102480001AEC18F01AC032F01BC033F032C001F061
:1024900033C002F0000E046E640E036E57EC1CF0A5
:1024A00001C030F002C031F032C001F033C002F0A0
:1024B000000E046E640E036EB1EC1BF001C02EF032
:1024C00002C02FF02EC038F030C001F031C002F051
:1024D000000E046E0A0E036EB1EC1BF00150376E55
:1024E00030C001F031C002F0000E046E0A0E036E1F
:1024F00057EC1CF00150366E2AEF13F0020EF9195A
:10250000D8A485EF12F087EF12F0D5EF12F0000E8D
:10251000056E000E066EC80E076E420E086EEAC00B
:1025200001F0EBC002F0ECC003F0EDC004F0FAECF7
:102530000AF001C01AF002C01BF003C01CF004C076
:102540001DF01AEC18F01AC032F01BC033F032C084
:1025500001F033C002F0000E046E640E036E57ECFF
:102560001CF001C030F002C031F032C001F033C0C5
:1025700002F0000E046E640E036EB1EC1BF001C09D
:102580002EF002C02FF02EC038F030C001F031C064
:1025900002F0000E046E0A0E036EB1EC1BF0015047
:1025A000376E430E366E2AEF13F0030EF919D8A4D6
:1025B000DCEF12F0DEEF12F0E6EF12F00B0E386EE9
:1025C000430E376E0B0E366E2AEF13F0040EF91918
:1025D000D8A4EDEF12F0EFEF12F0F6EF12F0530E79
:1025E000386E376A0B0E366E2AEF13F0050EF919A6
:1025F000D8A4FDEF12F0FFEF12F007EF13F0530E27
:10260000386E010E376E0B0E366E2AEF13F0060E83
:10261000F919D8A40EEF13F010EF13F018EF13F020
:10262000530E386E020E376E0B0E366E2AEF13F015
:10263000070EF919D8A41FEF13F021EF13F029EFBB
:1026400013F0430E386E4C0E376E720E366E2AEF54
:1026500013F000001200E2C089F0E3C08AF0E4C089
:102660008BF0E5C08CF079C089F07AC08AF07BC02D
:102670008BF07CC08CF0810E00017D6FFF0E7E6FB1
:1026800089C07FF08AC080F08BC081F08CC082F05E
:10269000180E50EF13F0D8908233813380337F339C
:1026A000E82E4BEF13F07F517D25876F000E7E21C2
:1026B000886F88BF65EF13F0885109E1170E875DB9
:1026C000D8A065EF13F067EF13F071EF13F079C046
:1026D00079F07AC07AF07BC07BF07CC07CF035EF7B
:1026E00014F088BF76EF13F078EF13F0E9EF13F0F2
:1026F00087C07DF0FF0E7E6FFF0E7F6F7F0E806FB5
:10270000000E816F7D6787EF13F08FEF13F0813537
:10271000813380337F337E337D2F82EF13F07EC091
:1027200083F07FC084F080C085F081C086F0000116
:10273000835189157D6F84518A157E6F85518B1564
:102740007F6F86518C15806F7D517E117F118011B6
:10275000D8A4ADEF13F0AFEF13F0B1EF13F067EFC4
:1027600013F089C07DF08AC07EF08BC07FF08CC0F2
:1027700080F0200EC1EF13F0D89080337F337E338A
:102780007D33E82EBCEF13F07D517E117F11801157
:10279000D8B4CDEF13F0CFEF13F0D7EF13F0835190
:1027A000892784518A2385518B2386518C23831D4D
:1027B0007D6F841D7E6F851D7F6F861D806F7D51AF
:1027C00089177E518A177F518B1780518C172DEFF7
:1027D00014F089C07DF08AC07EF08BC07FF08CC081
:1027E00080F0200EF9EF13F0D89080337F337E33E2
:1027F0007D33E82EF4EF13F07D517E117F118011AF
:10280000D8A405EF14F007EF14F011EF14F0000E48
:10281000896F000E8A6F000E8B6F000E8C6F2DEF8C
:1028200014F0D89089357D6F8A357E6F8B357F6F38
:102830008C35806F7D517E117F118011D8B423EFCC
:1028400014F025EF14F02DEF14F0000E896F000E38
:102850008A6F800E8B6FBF0E8C6F89C079F08AC033
:102860007AF08BC07BF08CC07CF012000001CA5162
:10287000D96EDA6ADFCFF6FF030EF76E0800F55067
:10288000250AD8A446EF14F048EF14F013EF15F022
:10289000CA51D96EDA6ADF2A000EEF6F000EEE6FB2
:1028A000EEC0F8F0F069F169CA51D96EDA6ADFCF8B
:1028B000F6FF030EF76E0800F5502E0AD8A463EF5A
:1028C00014F065EF14F075EF14F0CA51D96EDA6A9E
:1028D000DF2ACAC060F0CBC061F0CCC062F0A1ECCE
:1028E0001AF060C0F0F061C0F1F00001CA51D96E79
:1028F000DA6ADF50D36FD3C0F6FF030EF76E08001D
:10290000F5CFD2F08EEF14F0D32B9DEF14F06C0EB8
:10291000D26F9DEF14F0D26B9DEF14F0D2514C0AA0
:10292000D8B484EF14F02A0AD8B487EF14F00A0A56
:10293000D8B484EF14F08BEF14F0D3C0F6FF030E7D
:10294000F76E0800F550660AD8A4A9EF14F0ABEFB3
:1029500014F00CEF15F0D7EF14F0CBC0D9FFCCC0BA
:10296000DAFFDFCFCDF0040EDF26CD51D96EDA6A63
:10297000DECFCEF0DECFCFF0DECFD0F0DECFD1F0A5
:10298000E2EF14F0CBC0D9FFCCC0DAFFDFCFCDF03F
:10299000040EDF26CD51D96EDA6ADECFCEF0DECF5F
:1029A000CFF0DECFD0F0DECFD1F0E2EF14F0D25195
:1029B0004C0AD8B4C2EF14F0200AD8B4ADEF14F02A
:1029C000E2EF14F0CA51D96EDA6AD329DF6E00EF54
:1029D00015F0C8C093F0C9C094F0CEC095F0CFC038
:1029E00096F0D0C097F0D1C098F0D3C0F6FF030E98
:1029F000F76E0800F5CF99F090EC01F026EF15F096
:102A0000D3C0F6FF030EF76E0800F550660AD8B47F
:102A1000E9EF14F00CEF15F00001CA51D96EDA6A33
:102A2000DF2A26EF15F0CA51D96EDA6ADFCFF6FF3A
:102A3000030EF76E0800F550606F616BC8C062F05E
:102A4000C9C063F0EDEC19F00CEF15F012000001B5
:102A5000686F00016851D8B430EF15F032EF15F00F
:102A600054EF15F063BF39EF15F037EF15F054EF61
:102A700015F060C064F061C065F062C066F063C0CC
:102A800067F0641F651F661F671F642B000E6523B8
:102A90006623672364C06AF065C06BF066C06CF0A3
:102AA00067C06DF05CEF15F060C06AF061C06BF05C
:102AB00062C06CF063C06DF060516111621163110E
:102AC000D8A465EF15F067EF15F071EF15F0000E63
:102AD000606F000E616F000E626F000E636F02EF99
:102AE00016F0960E696F7BEF15F0692BD8906D3359
:102AF0006C336B336A33000E6A15646F000E6B150E
:102B0000656F000E6C15666FFE0E6D15676F645174
:102B1000651166116711D8A490EF15F092EF15F0CA
:102B200075EF15F0A0EF15F0692B010E6A27000E66
:102B30006B236C236D23D8906D336C336B336A3306
:102B4000000E6A15646F000E6B15656F000E6C1534
:102B5000666FFF0E6D15676F645165116611671121
:102B6000D8A4B5EF15F0B7EF15F094EF15F0BFEF5F
:102B700015F06907D8906A376B376C376D376CBFC3
:102B8000C4EF15F0C6EF15F0CEEF15F0020E696137
:102B9000CCEF15F0CEEF15F0B9EF15F069B1D3EF2A
:102BA00015F0D5EF15F0D6EF15F06C9FD89069337E
:102BB00069C064F0656B666B676B64C067F0666BD9
:102BC000656B646B64516A1365516B1366516C13CA
:102BD00067516D136851D8B4F0EF15F0F2EF15F0AE
:102BE000FAEF15F063BFF9EF15F0F7EF15F0FAEF14
:102BF00015F06D8F6AC060F06BC061F06CC062F060
:102C00006DC063F012000001606F46EF16F03F0EDA
:102C1000616F8AEF16F0060E616F8AEF16F05B0E99
:102C2000616F8AEF16F04F0E616F8AEF16F0660E35
:102C3000616F8AEF16F06D0E616F8AEF16F07D0EF0
:102C4000616F8AEF16F0070E616F8AEF16F07F0E44
:102C5000616F8AEF16F06F0E616F8AEF16F0790ED2
:102C6000616F8AEF16F0770E616F8AEF16F0390EFA
:102C7000616F8AEF16F0380E616F8AEF16F0310E31
:102C8000616F8AEF16F0616B8AEF16F000016051F8
:102C9000000AD8B407EF16F0010AD8B40BEF16F00B
:102CA000030AD8B40FEF16F0010AD8B413EF16F0E8
:102CB000070AD8B417EF16F0010AD8B41BEF16F0C4
:102CC000030AD8B41FEF16F0010AD8B423EF16F0A8
:102CD0000F0AD8B427EF16F0010AD8B42BEF16F07C
:102CE000480AD8B433EF16F0020AD8B437EF16F01A
:102CF0000F0AD8B43BEF16F01F0AD8B41BEF16F03A
:102D00000A0AD8B42FEF16F02B0AD8B43FEF16F00A
:102D100043EF16F061511200016ECEEF16F03F0E38
:102D2000026E11EF17F0060E026E11EF17F05B0E38
:102D3000026E11EF17F04F0E026E11EF17F0660ED4
:102D4000026E11EF17F06D0E026E11EF17F07D0E8F
:102D5000026E11EF17F0070E026E11EF17F07F0EE3
:102D6000026E11EF17F06F0E026E11EF17F0790E71
:102D7000026E11EF17F0770E026E11EF17F0390E99
:102D8000026E11EF17F0380E026E11EF17F0310ED0
:102D9000026E11EF17F0026A11EF17F00150000AEE
:102DA000D8B48FEF16F0010AD8B493EF16F0030AE7
:102DB000D8B497EF16F0010AD8B49BEF16F0070AC3
:102DC000D8B49FEF16F0010AD8B4A3EF16F0030AA7
:102DD000D8B4A7EF16F0010AD8B4ABEF16F00F0A7B
:102DE000D8B4AFEF16F0010AD8B4B3EF16F0480A22
:102DF000D8B4BBEF16F0020AD8B4BFEF16F00F0A32
:102E0000D8B4C3EF16F01F0AD8B4A3EF16F00A0A1D
:102E1000D8B4B7EF16F02B0AD8B4C7EF16F0CBEF43
:102E200016F002501200000189358A35906F9051DA
:102E3000D8A41DEF17F01FEF17F029EF17F0000EC1
:102E4000876F000E886F000E896F000E8A6F96EFF5
:102E500017F087C08BF088C08CF089C08DF08AC0D5
:102E60008EF0200E39EF17F0D8908E338D338C33DF
:102E70008B33E82E34EF17F08B518F6F898FFF0E55
:102E80008717FF0E8817FF0E8917000E8A17960EF8
:102E9000905F90BF50EF17F04EEF17F066EF17F00E
:102EA0009051800A970FD8B058EF17F05AEF17F0EB
:102EB0005CEF17F01FEF17F0D8908A33893388330F
:102EC0008733903F5CEF17F07EEF17F01F0E906591
:102ED0006CEF17F06EEF17F076EF17F01FEF17F0AB
:102EE000D8908737883789378A3790079051D8A488
:102EF0007CEF17F07EEF17F070EF17F08F51D8B41A
:102F000084EF17F086EF17F08EEF17F08A1F891FF6
:102F1000881F876D000E882389238A2387C087F046
:102F200088C088F089C089F08AC08AF01200000E3B
:102F3000000187158F6F000E8815906F800E891520
:102F4000916F7F0E8A15926F8F519011911192118E
:102F5000D8A4ADEF17F0AFEF17F0B7EF17F0000EF2
:102F6000876F000E886F000E896F000E8A6F000E4B
:102F70008B158F6F000E8C15906F800E8D15916FD5
:102F80007F0E8E15926F8F51901191119211D8A4CE
:102F9000CCEF17F0CEEF17F0D6EF17F0000E8B6FD7
:102FA000000E8C6F000E8D6F000E8E6F8AAFDBEF00
:102FB00017F0DDEF17F0E6EF17F0876D881FD8B038
:102FC000882B891FD8B0892B800E8A578EAFEBEFE4
:102FD00017F0EDEF17F0F6EF17F08B6D8C1FD8B0F0
:102FE0008C2B8D1FD8B08D2B800E8E57000E871B1B
:102FF000000E881B000E891B800E8A1B000E8B1B87
:10300000000E8C1B000E8D1B800E8E1B8B51875D5E
:103010008C5188598D5189598E518A59D8B013EFE6
:1030200018F015EF18F018EF18F0D89019EF18F005
:10303000D88012001C341D34236E2350D8A423EFF3
:1030400018F025EF18F02FEF18F0000E1A6E000E92
:103050001B6E000E1C6E000E1D6E9CEF18F01AC049
:103060001EF01BC01FF01CC020F01DC021F0200E60
:103070003FEF18F0D890213220321F321E32E82E56
:103080003AEF18F01E50226E1C8EFF0E1A16FF0E1D
:103090001B16FF0E1C16000E1D16960E235E23BE79
:1030A00056EF18F054EF18F06CEF18F02350800A28
:1030B000970FD8B05EEF18F060EF18F062EF18F0DD
:1030C00025EF18F0D8901D321C321B321A32233EE5
:1030D00062EF18F084EF18F01F0E236472EF18F0FF
:1030E00074EF18F07CEF18F025EF18F0D8901A362E
:1030F0001B361C361D3623062350D8A482EF18F049
:1031000084EF18F076EF18F02250D8B48AEF18F058
:103110008CEF18F094EF18F01D1E1C1E1B1E1A6C6D
:10312000000E1B221C221D221AC01AF01BC01BF00D
:103130001CC01CF01DC01DF01200E6C06AF0E7C004
:103140006BF0E8C06CF0E9C06DF060C06AF061C07F
:103150006BF062C06CF063C06DF06AC064F06BC06D
:1031600065F06CC066F06DC067F0180EBEEF18F029
:103170000001D8906733663365336433E82EB8EFC7
:1031800018F06451686F696B68516911D8A4CBEF6E
:1031900018F0CDEF18F0EDEF18F0D8906A35646FA5
:1031A0006B35656F6C35666F6D35676F6451651192
:1031B00066116711D8A4DFEF18F0E1EF18F0E7EF20
:1031C00018F0000E616F020E606F1CEF19F0000E18
:1031D000616F030E606F1CEF19F068296911D8A4A4
:1031E000F4EF18F0F6EF18F018EF19F06AC064F079
:1031F0006BC065F06CC066F06DC067F0090ED890CA
:103200006437653766376737E82EFFEF18F064518B
:10321000651166116711D8B410EF19F013EF19F0AA
:10322000010E14EF19F0000E606F616B1CEF19F0C6
:10323000000E616F040E606F12000001646F000EDB
:103240000001666F000E656F65C062F064C063F0D8
:10325000622B2DEF19F0D8906333622F2BEF19F00A
:10326000010E00016317633B634782506319DF0B54
:103270006319826E65C062F060C063F0622B43EF39
:1032800019F0D8906333622F41EF19F0010E00015D
:103290006317633B82506319EF0B6319826E65C03D
:1032A00062F061C063F0622B58EF19F0D89063337D
:1032B000622F56EF19F0010E000163176347634751
:1032C000634782506319F70B6319826E828C530E29
:1032D000E82EFED70000829C530EE82EFED7000099
:1032E0000001654B662B66BF7FEF19F0665109E15F
:1032F000080E655DD8A07FEF19F081EF19F024EF7B
:1033000019F0828E530EE82EFED70000829E120026
:10331000056E000E076E000E066E06C003F005C0B7
:1033200004F0032A96EF19F0D8900432032E94EF9C
:1033300019F0010E0416043A044682500418DF0BFB
:103340000418826E06C003F001C004F0032AABEF3C
:1033500019F0D8900432032EA9EF19F0010E0416CB
:10336000043A82500418EF0B0418826E06C003F072
:1033700002C004F0032ABFEF19F0D8900432032EE4
:10338000BDEF19F0010E04160446044604468250AF
:103390000418F70B0418826E828C530EE82EFED7A9
:1033A0000000829C530EE82EFED70000064A072A32
:1033B00007BEE4EF19F0075009E1080E065CD8A03B
:1033C000E4EF19F0E6EF19F08DEF19F0828E530E4D
:1033D000E82EFED70000829E1200000162516311A8
:1033E000D8B4F5EF19F0F7EF19F000EF1AF06251C9
:1033F0006311D8A4FEEF19F000EF1AF005EF1AF0F0
:10340000605148EC1FF04AEF1AF020EE09F06251CB
:10341000D9266351DA22DE50DE10D8B412EF1AF04A
:1034200014EF1AF02FEF1AF020EE09F06251D926AE
:103430006351DA2210EE02F06251E1266351E2227A
:10344000DE50E65CE650800A686FDE50800A6859FC
:10345000D8B02DEF1AF02FEF1AF04AEF1AF020EE45
:1034600002F06251D9266351DA22DF50646F62C0E4
:10347000D9FF63C0DAFFDF506425D96EDA6A60C015
:10348000DFFF20EE02F06251D9266351DA22DE2AF4
:10349000000EDD221200000E00016015686F000EA4
:1034A0006115696F800E62156A6F7F0E63156B6F11
:1034B000685169116A116B11D8A461EF1AF063EFBA
:1034C0001AF06BEF1AF0000E606F000E616F000EC5
:1034D000626F000E636F000E6415686F000E651555
:1034E000696F800E66156A6F7F0E67156B6F685186
:1034F00069116A116B11D8A480EF1AF082EF1AF0EB
:103500008AEF1AF0000E646F000E656F000E666F92
:10351000000E676F645160190FE1655161190CE18C
:103520006651621909E167516319D8B49AEF1AF02C
:103530009CEF1AF09FEF1AF0D890A0EF1AF0D88005
:103540001200000E0001676F000E666F6051D96EA9
:10355000DA6ADFCFF6FF030EF76E0800F5502A0A8D
:10356000D8A4B5EF1AF0B7EF1AF0DDEF1AF06051FA
:10357000D96EDA6ADF2A61C0D9FF62C0DAFF020EB3
:10358000DF26DF5CD96EDA6ADECF66F0DECF67F069
:10359000F0EF1AF00A0E6603F3CF63F0F4CF64F095
:1035A0006703F350642765516325666F000E64213D
:1035B000676F6051D96EDA6ADF2A6051D96EDA6AB4
:1035C000DFCFF6FF030EF76E0800F550D00F656FE2
:1035D000090E6565EEEF1AF0F0EF1AF0CAEF1AF077
:1035E00066C060F067C061F01200000E0001666FF7
:1035F000000E656F18EF1BF0000165516125636FC8
:1036000066516221646F63C0F6FF64C0F7FFF86A19
:10361000020EF76403D00800F55005D0F6CFE1FFA5
:10362000F7CFE2FFE750F6EC1EF00001654B662B8A
:1036300065516125636F66516221646F63C0F6FF57
:1036400064C0F7FFF86A020EF76403D00800F55073
:1036500005D0F6CFE1FFF7CFE2FFE7500009D8A48D
:1036600034EF1BF036EF1BF0FCEF1AF01200000EE7
:10367000076E000E066E57EF1BF006500224046E14
:1036800007500320056E04C0F6FF05C0F7FFF86A77
:10369000020EF76403D00800F55005D0F6CFE1FF25
:1036A000F7CFE2FFE75002EC1FF0064A072A065068
:1036B0000224046E07500320056E04C0F6FF05C007
:1036C000F7FFF86A020EF76403D00800F55005D042
:1036D000F6CFE1FFF7CFE2FFE7500009D8A473EF80
:1036E0001BF075EF1BF03DEF1BF01200000E000108
:1036F000666F000E656F62516311D8B482EF1BF0E4
:1037000084EF1BF0ACEF1BF0010E646F8CEF1BF02D
:10371000D89062376337642B63AF91EF1BF093EF60
:103720001BF088EF1BF0D890653766376251605DFB
:1037300063516159D8A09FEF1BF0A1EF1BF0A6EFDA
:103740001BF06251605F6351615B6581D8906333A8
:103750006233642F93EF1BF065C060F066C061F0C8
:103760001200000E066E000E056E03500410D8B451
:10377000BCEF1BF0BEEF1BF0E6EF1BF0010E076E77
:10378000C6EF1BF0D89003360436072A04AECBEF01
:103790001BF0CDEF1BF0C2EF1BF0D89005360636BC
:1037A0000350015C04500258D8A0D9EF1BF0DBEFA6
:1037B0001BF0E0EF1BF00350015E0450025A05803D
:1037C000D89004320332072ECDEF1BF005C001F074
:1037D00006C002F01200000175BFF3EF1BF0F1EF1D
:1037E0001BF0F7EF1BF0000E756F000E746F000EEC
:1037F000786F000E776F0AEF1CF0000E616F200EDD
:10380000606F70C062F071C063F0EDEC19F0000100
:10381000774B782B7451775D7851800A766F7551AC
:10382000800A7659D8A017EF1CF019EF1CF0FDEFB5
:103830001BF072C069F073C06AF070C06BF071C0A9
:103840006CF0DFEC1DF01200000162516311D8B47E
:103850002CEF1CF02EEF1CF052EF1CF0010E646FE9
:1038600036EF1CF0D89062376337642B63AF3BEFC1
:103870001CF03DEF1CF032EF1CF06251605D6351B3
:103880006159D8A046EF1CF048EF1CF04CEF1CF03B
:103890006251605F6351615BD89063336233642F20
:1038A0003DEF1CF060C060F061C061F01200035099
:1038B0000410D8B45EEF1CF060EF1CF084EF1CF035
:1038C000010E056E68EF1CF0D89003360436052A09
:1038D00004AE6DEF1CF06FEF1CF064EF1CF00350B2
:1038E000015C04500258D8A078EF1CF07AEF1CF06D
:1038F0007EEF1CF00350015E0450025AD89004324F
:103900000332052E6FEF1CF001C001F002C002F07F
:103910001200385003EC16F03B6E3404D8A493EF39
:103920001CF095EF1CF0AAEF1CF00001F905D8B4CB
:103930009CEF1CF09EEF1CF0A7EF1CF0020EF91993
:10394000D8A4A5EF1CF0A7EF1CF0AAEF1CF03B5089
:1039500080093B6E375003EC16F03A6E365003EC9C
:1039600016F0396E3AC060F039C061F03B501DEC82
:1039700019F0120038508CEC16F03B6E3404D8A4C9
:10398000C4EF1CF0C6EF1CF0DBEF1CF00001F905E2
:10399000D8B4CDEF1CF0CFEF1CF0D8EF1CF0020E26
:1039A000F919D8A4D6EF1CF0D8EF1CF0DBEF1CF00F
:1039B0003B5080093B6E37508CEC16F03A6E365017
:1039C0008CEC16F0396E3AC001F039C002F03B5071
:1039D00088EC19F01200000163BFF1EF1CF0F3EF67
:1039E0001CF0FDEF1CF060C060F061C061F062C0CF
:1039F00062F063C063F016EF1DF060C064F061C058
:103A000065F062C066F063C067F0641F651F661FE3
:103A1000671F642B000E65236623672364C060F074
:103A200065C061F066C062F067C063F012008C0E82
:103A3000F66E3E0EF76E000EF86E00EE4AF010EED7
:103A400004F00900F5CFEEFFE550E150FAE101EE98
:103A500000F0500EEE6AE806FDE100EEE2F01D0E09
:103A6000EE6AE806FDE100EE2CF01E0EEE6AE806B6
:103A7000FDE14E904E92000EF86E00010DEF0DF03C
:103A800062C069F063C06AF060C067F061C068F04E
:103A90005AEF1DF069C0D9FF6AC0DAFFDF50666FC8
:103AA000694B6A2B67C0D9FF68C0DAFF66C0DFFFC9
:103AB000674B682B00016407D8A06507642906E1FD
:103AC0006529D8A466EF1DF068EF1DF04AEF1DF0E0
:103AD000120028EC1FF0A00EB3EC1EF062C060F0E4
:103AE00063C061F040EC1FF03D6E62C060F063C0E7
:103AF00061F043EC1FF03C6E3D50B3EC1EF03C50C7
:103B0000B3EC1EF000016451B3EC1EF01FEC1FF08B
:103B1000040E0001656F3D0EE82EFED7652FFCD721
:103B200000D0120062C060F063C061F040EC1FF092
:103B30003D6E62C060F063C061F043EC1FF03C6E0C
:103B400028EC1FF0A00EB3EC1EF03D50B3EC1EF0BD
:103B50003C50B3EC1EF031EC1FF0A10EB3EC1EF0A4
:103B6000010E84EC1EF00001646F1FEC1FF00001D9
:103B700064511200D6C0D9F0CBEF1DF0D4C0C8F00C
:103B8000D5C0C9F0D90E0001CA6FD7C0CBF0D8C0DC
:103B9000CCF036EC14F0D9C0F6FF030EF76E080037
:103BA000F5500009D8A4D7EF1DF0D9EF1DF0BEEFF6
:103BB0001DF0000E0001D56F000ED46F1200000E34
:103BC00000016F6F000E6E6FF2EF1DF06DC060F0C0
:103BD000616B6BC062F06CC063F0EDEC19F000013A
:103BE0006E4B6F2B6E516925D96E6F516A21DA6E5B
:103BF000DF506D6F6D51D8A400EF1EF002EF1EF084
:103C0000E6EF1DF01200000E00018B1B000E8C1B56
:103C1000000E8D1B800E8E1B87C060F088C061F087
:103C200089C062F08AC063F08BC064F08CC065F01C
:103C30008DC066F08EC067F08AEC06F060C087F039
:103C400061C088F062C089F063C08AF01200DC0EA7
:103C50000101506FDAC051F1000E546F000E536F26
:103C6000000E5B6F000E5A6F510E0001D46F010EF3
:103C7000D56FDBC0D6F0500ED76F010ED86FBAECFF
:103C80001DF00001DA5101015325D96EDA6ADF6AAD
:103C9000120060C064F061C065F00001622B620533
:103CA000636F63C0F6FF030EF76E64C0D9FF65C093
:103CB000DAFF644B652B0800F5CFDFFFDF50D8A497
:103CC00064EF1EF066EF1EF04DEF1EF012000001D3
:103CD0006051611162116311D8B471EF1EF073EF7E
:103CE0001EF07BEF1EF0000E601B000E611B000E2D
:103CF000621B800E631B60C060F061C061F062C037
:103D000062F063C063F012000001606FC586C7A057
:103D10008CEF1EF08EEF1EF087EF1EF0C9CF3EF045
:103D2000000160B102D0C59A01D0C58AC588C5B866
:103D30009CEF1EF09EEF1EF097EF1EF03E5012001B
:103D4000010E0001FE6FC282C2B2A9EF1EF0ABEFFE
:103D50001EF0A4EF1EF0C4500001606FC350F66F58
:103D600060C0F7F012000001606F60C0C9FFC7B00B
:103D7000BCEF1EF0BEEF1EF0B7EF1EF0C5BCC3EFE8
:103D80001EF0C5EF1EF0BEEF1EF01200010E000186
:103D9000FE6FC282C2B2CFEF1EF0D1EF1EF0CAEFAB
:103DA0001EF0C450016EC3500001F66F01C0F7F061
:103DB0001200B896B890B898B89E0C0EAF6EAC943E
:103DC000AC98AC9CAB8EAC8AAB98AC96938E938A35
:103DD0001200350ECD6E000ECF6E000ECE6E9E9090
:103DE0009D80000ECF6E000ECE6E12000001606F3F
:103DF000ACA2FDEF1EF0FFEF1EF0F8EF1EF060C06A
:103E0000ADFF1200016EACA208EF1FF00AEF1FF029
:103E100003EF1FF001C0ADFF12009388938C280EB2
:103E2000C66E040EC86EC76AC56A1200F18AF188B0
:103E3000F086F088F09CF09EF090F0921200C5841D
:103E4000C5B425EF1FF027EF1FF020EF1FF0120081
:103E5000C580C5B02EEF1FF030EF1FF029EF1FF027
:103E60001200C582C5B237EF1FF039EF1FF032EFF5
:103E70001FF01200C16A0D0EC26EAF0EC06E1200AE
:103E80000001605112000001615112000A28A03B9C
:023E900012001E
:020000040030CA
:0E00000000E81F1EFF8881FF03C003E00340DD
:00000001FF
