:04000000CFEF00F04E
:100008004E82E1CF24F0E2CF25F0F3CF26F0F4CFF3
:1000180027F0F6CF28F0F7CF29F0F8CF2AF0F5CF60
:100028002BF09EA019D09E90000ECF6E000ECE6EC3
:100038000001F905D8B404D0020EF919D8A408D0E3
:100048003F2A380E3F6408D03F6A53EC18F004D0BA
:10005800070EF919D8B4897AF0B002D0F0A289D085
:100068002C4A2D2AF0A251D0210E2C5C030E2D58BB
:10007800D8A04BD0F092010E356E010E346E000EF2
:100088002D6E000E2C6E26D0010EF96F000EF36F48
:10009800000EF26FFA51D8A45BD053EC18F058D088
:1000A800020EF96F000EF36F000EF26F51D0030EBF
:1000B800F96F000EF36F000EF26F010E026E025020
:1000C800D8A4030E036E6DEC15F042D0040E33D0A5
:1000D800F96B3ED00001F951000AD8B4D5D7010A0E
:1000E800D8B4DED7030AD8B4E2D7010AD8B4EED719
:1000F800070AD8B4EDD7010AD8B4EAD7030AD8B4A6
:10010800E7D7010AD8B4E4D723D0F0A021D0210E34
:100118002C5C030E2D58D8A01BD0F090356A010E28
:10012800346E000E2D6E000E2C6E07D0050E03D017
:10013800060E01D0070EF96F0BD00001F951040A21
:10014800D8B4F4D7010AD8B4F3D7030AD8B4F2D78D
:100158000001FA05D8A40BD02D5009E10A0E2C5C39
:10016800D8B005D057EC0EF008EC17F002D0010E0D
:10017800FA6F2BC0F5FF2AC0F8FF29C0F7FF28C087
:10018800F6FF27C0F4FF26C0F3FF25C0E2FF24C016
:0A019800E1FF4E921100D2EF15F0C6
:10030000005354415254200D0A00454E44200D0A1A
:0F03100000252E326600696E66006E616E000079
:10032000BD6B95C0BEF096C0BFF097C0C0F098C03E
:10033000C1F0C1AF14D0010EBD6FBEC060F0BFC030
:1003400061F0C0C062F0C1C063F0FFEC17F060C0A4
:10035000BEF061C0BFF062C0C0F063C0C1F0000E6B
:10036000C36F000EC26FEEC0ADF0EFC0AEF0BD5176
:10037000D8B40DD0BD51D8A404D0000EA36F2B0E5D
:1003800003D0000EA36F2D0EA26FA2C0BDF0BEC0A1
:1003900060F0BFC061F0C0C062F0C1C063F0D6ECD5
:1003A00011F060056111D8A429D0BD51D8B409D08D
:1003B000BDC000F1AD07D8A0AE07000EC36F010E9F
:1003C000C26F000EC225606F010EC321616F160E51
:1003D000626FE7EC17F0FD0EAD27FF0EAE2393C062
:1003E00070F094C071F0000E726F010E736FADC0AB
:1003F00074F0AEC075F0A6EC15F01200BEC060F04F
:10040000BFC061F0C0C062F0C1C063F0D6EC11F0B3
:1004100060516111D8A417D0BD51D8B409D0BDC066
:1004200000F1AD07D8A0AE07000EC36F010EC26F7A
:10043000000EC225606F010EC321616F1A0E626F3C
:10044000E7EC17F0C8D7000EC46F000EC56F800E22
:10045000C66F3F0EC76F000EAC6F000EAB6FBEC015
:1004600060F0BFC061F0C0C062F0C1C063F0000EB8
:10047000646F000E656F000E666F000E676FEDEC27
:1004800014F0D8A00BD0BAD0AFC0C4F0B0C0C5F043
:10049000B1C0C6F0B2C0C7F0AB4BAC2BC4C06EF05D
:1004A000C5C06FF0C6C070F0C7C071F0000E726FAB
:1004B000000E736F200E746F410E756F7BEC07F0AA
:1004C0006EC0AFF06FC0B0F070C0B1F071C0B2F0EC
:1004D000AF51BE5D606FB051BF59616FB151C0592E
:1004E000626FB251C159636F9EEC16F063BFCCD7F7
:1004F00063516211611104E1020E605DD8A0C4D79E
:10050000AFC087F0B0C088F0B1C089F0B2C08AF047
:10051000BEC08BF0BFC08CF0C0C08DF0C1C08EF0EB
:100520006EEC11F0D8A0B0D7C451BE5D606FC5515C
:10053000BF59616FC651C059626FC751C159636FCE
:100540009EEC16F063BF08D063516211611142E165
:10055000020E605DD8B03ED0C4C0BEF0C5C0BFF0D2
:10056000C6C0C0F0C7C0C1F049D0C4C060F0C5C0AB
:1005700061F0C6C062F0C7C063F0000E646F000E89
:10058000656F200E666F410E676F27EC0CF060C040
:10059000C4F061C0C5F062C0C6F063C0C7F0AB076D
:1005A000D8A0AC07C451BE5D606FC551BF59616F23
:1005B000C651C059626FC751C159636F9EEC16F0A6
:1005C00063BFCAD763516211611104E1020E605D1D
:1005D000D8A0C2D7BEC087F0BFC088F0C0C089F025
:1005E000C1C08AF0C4C08BF0C5C08CF0C6C08DF00D
:1005F000C7C08EF06EEC11F0D8A0B7D799C0A5F0A7
:10060000A5C0A6F0F1BF05D0F0C09EF0F1C09FF0EC
:1006100004D0000E9F6F060E9E6F9EC0A9F09FC073
:10062000AAF0A94BAA2B660EA619D8A416D0ACAF77
:100630000CD0000EC46F000EC56F800EC66F3F0E4B
:10064000C76F000EAC6F000EAB6F670EA519D8B464
:1006500004D0AB51A927AC51AA23000EB46F000EF1
:10066000B36FBEC0B5F0BFC0B6F0C0C0B7F0C1C078
:10067000B8F0C4C0AFF0C5C0B0F0C6C0B1F0C7C0DC
:10068000B2F07AD0B5C060F0B6C061F0B7C062F029
:10069000B8C063F0C4C064F0C5C065F0C6C066F001
:1006A000C7C067F027EC0CF060C079F061C07AF049
:1006B00062C07BF063C07CF044EC0FF079C0B9F00D
:1006C0007AC0BAF07BC0BBF07CC0BCF0B9C087F088
:1006D000BAC088F0BBC089F0BCC08AF09AEC12F0B6
:1006E00087C0A7F088C0A8F0B5C087F0B6C088F072
:1006F000B7C089F0B8C08AF0B9C072F0BAC073F060
:10070000BBC074F0BCC075F0C4C06EF0C5C06FF063
:10071000C6C070F0C7C071F07BEC07F06EC08BF004
:100720006FC08CF070C08DF071C08EF0C3EC16F00D
:1007300087C0B5F088C0B6F089C0B7F08AC0B8F0FD
:10074000C4C060F0C5C061F0C6C062F0C7C063F04D
:10075000000E646F000E656F200E666F410E676FAE
:1007600027EC0CF060C0C4F061C0C5F062C0C6F0F8
:1007700063C0C7F0B34BB42BA951B35DB451800A29
:100780009A6FAA51800A9A59D8A07CD7C4C06EF03B
:10079000C5C06FF0C6C070F0C7C071F0000E726FB8
:1007A000000E736FA00E746F400E756F7BEC07F038
:1007B0006EC0B9F06FC0BAF070C0BBF071C0BCF0D1
:1007C000B5C087F0B6C088F0B7C089F0B8C08AF06D
:1007D000B9C08BF0BAC08CF0BBC08DF0BCC08EF03D
:1007E0006EEC11F0D8A015D0B5C060F0B6C061F0C5
:1007F000B7C062F0B8C063F0B9C064F0BAC065F0C9
:10080000BBC066F0BCC067F0EDEC14F0D8B0A7B187
:1008100008D0000EB96F000EBA6F000EBB6F000E4D
:10082000BC6FBEC060F0BFC061F0C0C062F0C1C0AC
:1008300063F0B9C064F0BAC065F0BBC066F0BCC07C
:1008400067F0A3EC0AF060C0B5F061C0B6F062C01A
:10085000B7F063C0B8F0B5C087F0B6C088F0B7C0D5
:1008600089F0B8C08AF0000E726F000E736F200E10
:10087000746F410E756FAFC06EF0B0C06FF0B1C055
:1008800070F0B2C071F07BEC07F06EC08BF06FC0FF
:100890008CF070C08DF071C08EF06EEC11F0D8A0AD
:1008A00022D0AB4BAC2BAFC06EF0B0C06FF0B1C07C
:1008B00070F0B2C071F0000E726F000E736F200EF8
:1008C000746F410E756F7BEC07F06EC0AFF06FC0B8
:1008D000B0F070C0B1F071C0B2F0660EA619D8A425
:1008E00002D0A94BAA2BAFC0C4F0B0C0C5F0B1C0B4
:1008F000C6F0B2C0C7F0ABC09CF0ACC09DF0A46B1A
:10090000000EA16F000EA06F000EB46F000EB36F4B
:10091000CAD0B5C060F0B6C061F0B7C062F0B8C070
:1009200063F0C4C064F0C5C065F0C6C066F0C7C05F
:1009300067F027EC0CF060C079F061C07AF062C01B
:100940007BF063C07CF044EC0FF079C0B9F07AC062
:10095000BAF07BC0BBF07CC0BCF0B9C087F0BAC0B5
:1009600088F0BBC089F0BCC08AF09AEC12F088BF56
:1009700006D0885113E10A0E875DD8B00FD0B9C0F8
:1009800087F0BAC088F0BBC089F0BCC08AF09AEC8E
:1009900012F087C0A7F088C0A8F004D0000EA86F9E
:1009A000090EA76FA451D8B49DAF20D0000EC22568
:1009B000D96E010EC321DA6E2E0EDF6EC24BC32B31
:1009C000AD07D8A0AE07010EA46F10D0000EC2254F
:1009D000D96E010EC321DA6E300EDF6EC24BC32B0F
:1009E000AD07D8A0AE07A007D8A0A107A051A111BC
:1009F000D8A4ECD7000EC225D96E010EC321DA6E41
:100A0000A751300FDF6EC24BC32BAD07D8A0AE0786
:100A1000B5C087F0B6C088F0B7C089F0B8C08AF01A
:100A2000B9C072F0BAC073F0BBC074F0BCC075F04E
:100A3000C4C06EF0C5C06FF0C6C070F0C7C071F022
:100A40007BEC07F06EC08BF06FC08CF070C08DF047
:100A500071C08EF0C3EC16F087C0B5F088C0B6F058
:100A600089C0B7F08AC0B8F0C4C060F0C5C061F0FA
:100A7000C6C062F0C7C063F0000E646F000E656F01
:100A8000200E666F410E676F27EC0CF060C0C4F05B
:100A900061C0C5F062C0C6F063C0C7F09C07D8A0B3
:100AA0009D07B34BB42BA951B35DB451800A9A6F23
:100AB000AA51800A9A59D8B008D0C3BF2AD7C351C7
:100AC00004E14B0EC25DD8A024D7000EB46F4F0EC8
:100AD000B36F000EB325D96E010EB421DA6EDF6A52
:100AE000000E9A6F010E9B6FC2519A5FC3519B5BC0
:100AF000B3519A25606FB4519B21616F000E626FF4
:100B0000010E636FC2C064F0C3C065F0E6EC16F07E
:100B1000C251B35DC26FC351B459C36FBD51D8B494
:100B200002D0010E01D0000EB36FB46BBD51D8B42A
:100B30000BD0C207D8A0C307000EC225D96E010E84
:100B4000C321DA6EBDC0DFFFB351AD5FB451AE5B00
:100B500093C070F094C071F0000EC225726F010E48
:100B6000C321736FADC074F0AEC075F0A6EC15F084
:100B70001200D380D382D396D398D39AD38C020E0B
:100B80000001E16F450EE06FA90EE82EFED7E02FC1
:100B9000FCD7E12FFAD700D0080E7E6E100E926EB1
:100BA00094907E9881EC18F0100EE82EFED700D0BD
:100BB00046EC18F05FEC18F0949A94989496949CF4
:100BC000949E8B9A8B988B968B9C8B9E948294840C
:100BD00068EC18F028EC18F0F28CF28E38EC18F073
:100BE0000001FE05D8A470D0F905D8A46DD0898A7B
:100BF000F6C060F0F7C061F0626B636B000ECDEC85
:100C000010F060C06EF061C06FF062C070F063C041
:100C100071F00A0E726F280E736FA00E746F3B0E88
:100C2000756F7BEC07F06EC0EAF06FC0EBF070C040
:100C3000ECF071C0EDF0F24BF32BF6C060F0F7C0B2
:100C400061F099EC18F001015C6FF2C062F0F3C042
:100C500063F05CC164F024EC16F00001F24BF32B5E
:100C6000F6C060F0F7C061F09EEC18F001015D6F16
:100C7000F2C062F0F3C063F05DC164F024EC16F0E2
:100C80000001F24BF32BF2C062F0F3C063F0FE0EF2
:100C9000646F24EC16F0A40E0001F25D1F0EF359F0
:100CA000D8A005D0F96B000EF36F000EF26F030EA3
:100CB0000001E16F8A0EE06F550EE82EFED7E02F9F
:100CC000FCD7E12FFAD754D0FE05D8A455D0020E98
:100CD000F919D8A451D0898AF6C060F0F7C061F044
:100CE000626B636B000ECDEC10F060C06EF061C003
:100CF0006FF062C070F063C071F00A0E726F280E60
:100D0000736FA00E746F3B0E756F7BEC07F06EC0B7
:100D1000EAF06FC0EBF070C0ECF071C0EDF0400E87
:100D2000DA6F110EDB6FEAC0DCF0EBC0DDF0ECC077
:100D3000DEF0EDC0DFF02AEC17F0400E0001616F2D
:100D4000626B32EC15F00E0E0001616F6151D8A498
:100D5000030E626F32EC15F0030E0001E16F8A0E94
:100D6000E06F550EE82EFED7E02FFCD7E12FFAD723
:100D700000D00001FE6B899A030EF919D8A48FD018
:100D8000898AF251F311D8A40CD0010E616F615120
:100D9000D8A4030E626F32EC15F00001F24BF32B76
:100DA00082D0200EF25D1C0EF359D8A00DD00A0E91
:100DB000616F6151D8A4030E626F32EC15F0000E22
:100DC0000001F36F000E69D0F2C062F0F3C063F06F
:100DD00076EC16F0FD6FF24BF32BF2C062F0F3C02D
:100DE00063F076EC16F0FC6FF24BF32BF2C062F07E
:100DF000F3C063F076EC16F0FB6FF24BF32BFE0EB4
:100E0000FB19D8A447D0FC51E06FFD51F46FE0C04E
:100E1000F5F0F4C060F0F5C061F0626B636B000E3A
:100E2000CDEC10F060C06EF061C06FF062C070F089
:100E300063C071F00A0E726F280E736FA00E746F8C
:100E40003B0E756F7BEC07F06EC0EAF06FC0EBF005
:100E500070C0ECF071C0EDF0400EDA6F110EDB6F78
:100E6000EAC0DCF0EBC0DDF0ECC0DEF0EDC0DFF09E
:100E70002AEC17F0400E0001616F626B32EC15F046
:100E80000E0E0001616F6151D8A4030E626F32EC47
:100E900015F009D01C0EF36F200EF26F04D0070E70
:100EA000F96101D0899A0001FA05D8A415D0829081
:100EB0006AEC0DF04BEC17F01A0E0001E16F5E0EBC
:100EC000E06F6E0EE82EFED7E02FFCD7E12FFAD7A9
:100ED00000000001FA6B84D68280030E0001E16FEE
:100EE0008A0EE06F550EE82EFED7E02FFCD7E12FDB
:100EF000FAD700D075D67151800B7A6F7151712578
:100F00007C6F70BF7C817C51D8B40DD07C29D8A473
:100F100008D0000E6E6F000E6F6F000E706F000E27
:100F2000716F708F08D0000E6E6F000E6F6F000E25
:100F3000706F000E716F7551800B7A1B755175259E
:100F40007B6F74BF7B817B51D8B40DD07B29D8A433
:100F500008D0000E726F000E736F000E746F000EDB
:100F6000756F748F08D0000E726F000E736F000ED5
:100F7000746F000E756F7B51D8B403D07C51D8A428
:100F800009D0000E6E6F000E6F6F000E706F000EB6
:100F9000716F120074516E03F3CF85F0F4CF86F0B9
:100FA00085517D6F7E6B7F6B806B8651816F826B0D
:100FB000836B846B73516F03F3CF85F0F4CF86F0AE
:100FC00085517D27000E7E237F2380238651812734
:100FD000000E82238323842372517003F3CF85F0A4
:100FE000F4CF86F085517D27000E7E237F2380235A
:100FF00086518127000E8223832384237FC080F0C3
:101000007EC07FF07DC07EF07D6B72516F03F3CFA9
:1010100085F0F4CF86F085517D2786517E23000E22
:101020007F23000E802373516E03F3CF85F0F4CF3E
:1010300086F085517D2786517E23000E7F23000E8A
:1010400080237FC080F07EC07FF07DC07EF07D6B0E
:1010500072516E03F3CF85F0F4CF86F085517D2772
:1010600086517E23000E7F23000E802374516F0370
:10107000F3CF85F0F4CF86F0855181278651822306
:10108000000E8323000E842373517003F3CF85F089
:10109000F4CF86F08551812786518223000E832369
:1010A000000E842374517003F3CF85F0F4CF86F0E3
:1010B0008551766F8651776F786B796B78C079F050
:1010C00077C078F076C077F0766B765181277751CC
:1010D0008223785183237951842380518127000E04
:1010E0008223832384237FC080F07EC07FF07DC075
:1010F0007EF07D6B7B517CC076F0776B7627000E9F
:101100007723820E7625856FFF0E7721866F0FD0AD
:10111000D890813782378337843780BF8181D890D8
:101120007D377E377F3780378507D8A0860783AF26
:10113000EFD77B6B80AF17D0FF0E7D15766FFF0E5C
:101140007E15776FFF0E7F15786F7F0E8015796F94
:101150007651771178117911D8B403D0010E7B6FD5
:1011600002D081B1FBD77B51D8B41FD0010E8127AB
:10117000000E82238323842384A117D081C076F0BC
:1011800082C077F083C078F084C079F07935793304
:1011900078337733763376C081F077C082F078C0C9
:1011A00083F079C084F0854B862B86BF0DD08651A5
:1011B00003E18529D8A008D0000E816F000E826F50
:1011C000800E836F7F0E1FD086BF05D086510DE144
:1011D0008505D8B00AD0000E816F000E826F000E18
:1011E000836F000E846F7A6B0FD085C07CF0FF0E8A
:1011F0008117FF0E82177F0E8317000E84177CB1B4
:10120000838FD8907C31846F7A51841381C06EF0C3
:1012100082C06FF083C070F084C071F0120004507F
:10122000800B0D6E04500424136E03BE1380135004
:10123000D8B40DD01328D8A408D0000E016E000E2B
:10124000026E000E036E000E046E038E08D0000EB8
:10125000016E000E026E000E036E000E046E08504A
:10126000800B0D1A085008240E6E07BE0E800E501B
:10127000D8B40DD00E28D8A408D0000E056E000EEC
:10128000066E000E076E000E086E078E08D0000E68
:10129000056E000E066E000E076E000E086E0E50F4
:1012A000D8B403D01350D8A409D0000E016E000E9C
:1012B000026E000E036E000E046E12000750010253
:1012C000F3CF18F0F4CF19F018500F6E106A116AAE
:1012D000126A1950146E156A166A176A06500202CD
:1012E000F3CF18F0F4CF19F018500F26000E10228B
:1012F0001122122219501426000E1522162217222E
:1013000005500302F3CF18F0F4CF19F018500F2650
:10131000000E10221122122219501426000E15223E
:101320001622172211C012F010C011F00FC010F0D9
:101330000F6A05500202F3CF18F0F4CF19F01850DD
:101340000F2619501022000E1122000E12220650F4
:101350000102F3CF18F0F4CF19F018500F261950EE
:101360001022000E1122000E122211C012F010C025
:1013700011F00FC010F00F6A05500102F3CF18F002
:10138000F4CF19F018500F2619501022000E112218
:10139000000E122207500202F3CF18F0F4CF19F01A
:1013A0001850142619501522000E1622000E17226E
:1013B00006500302F3CF18F0F4CF19F0185014269A
:1013C00019501522000E1622000E17220750030294
:1013D000F3CF18F0F4CF19F01850096E19500A6EB7
:1013E0000B6A0C6A0BC00CF00AC00BF009C00AF0C3
:1013F000096A095014260A5015220B5016220C5067
:10140000172212501426000E15221622172211C080
:1014100012F010C011F00FC010F00F6A0E5013C080
:1014200009F00A6A0926000E0A22820E0924186EA3
:10143000FF0E0A20196E0FD0D890143615361636C6
:10144000173612BE1480D8900F3610361136123669
:101450001806D8A0190616AEEFD70E6A12AE17D02E
:10146000FF0E0F14096EFF0E10140A6EFF0E1114FA
:101470000B6E7F0E12140C6E09500A100B100C101C
:10148000D8B403D0010E0E6E02D014B0FBD70E50AC
:10149000D8B41FD0010E1426000E152216221722D2
:1014A00017A017D014C009F015C00AF016C00BF031
:1014B00017C00CF00C340C320B320A32093209C05E
:1014C00014F00AC015F00BC016F00CC017F0184A43
:1014D000192A19BE0DD0195003E11828D8A008D038
:1014E000000E146E000E156E800E166E7F0E1FD04D
:1014F00019BE05D019500DE11804D8B00AD0000E5D
:10150000146E000E156E000E166E000E176E0D6A2C
:101510000FD018C013F0FF0E1416FF0E15167F0E15
:101520001616000E171613B0168ED8901330176EBD
:101530000D50171214C001F015C002F016C003F0D0
:1015400017C004F012006351800B6C6F6351632568
:101550006E6F62BF6E816E51D8B40ED06E29D8A462
:1015600008D0000E606F000E616F000E626F000EFB
:10157000636F628F636B08D0000E606F000E616F47
:10158000000E626F000E636F6751800B6D6F6C51C0
:101590006D19D8A46C8D675167256D6F66BF6D811D
:1015A0006D51D8B40ED06D29D8A408D0000E646F48
:1015B000000E656F000E666F000E676F668F676BBB
:1015C00008D0000E646F000E656F000E666F000E8F
:1015D000676F6E516D5DD8B022D06CAD02D0800EB9
:1015E0006C1B6EC06FF06DC06EF06FC06DF060C0B0
:1015F0006FF064C060F06FC064F061C06FF065C0F0
:1016000061F06FC065F062C06FF066C062F06FC0DD
:1016100066F063C06FF067C063F06FC067F06F6B18
:101620006E516DC068F0696B685F000E695B69BFE1
:101630002CD0695104E11A0E685DD8A026D0605103
:10164000611162116311D8B402D0010E01D0000EF5
:101650006F6F000E606F000E616F000E626F000E04
:10166000636F6DC06EF015D06FA105D0D8906F314B
:1016700001096F6F02D0D8906F3360B16F8F6335FF
:1016800063336233613360336E2B6D516E5DD8A06E
:10169000EBD76CBD28D06E51D8A409D0000E606F76
:1016A000000E616F000E626F000E636F12006451D6
:1016B000602765516123665162236751632363A1EB
:1016C00071D06FA105D0D8906F3101096F6F02D032
:1016D000D8906F3360B16F8F63356333623361339A
:1016E00060336E2B5FD06451605D65516159665106
:1016F00062596351800A686F6751800A6859D8B08F
:1017000025D06051645D686F61516559696F6251A0
:1017100066596A6F635167596B6FFF0E6825606F7A
:10172000FF0E6921616FFF0E6A21626FFF0E6B2150
:10173000636F800E6C1B6F6D6F51D8A40FD0010EBC
:101740006027000E61236223632308D06451605F29
:101750006551615B6651625B6751635B605161110A
:1017600062116311D8A41CD06F51D8A419D0000EF7
:10177000606F000E616F000E626F000E636F1200EB
:10178000D89060376137623763376FBF60816FA170
:1017900002D0D88001D0D8906F376E51D8A46E0790
:1017A00062AFEED76D6B6FAF0BD06FC068F07F0E7E
:1017B0006817D8B403D0010E6D6F02D060B1FBD7AB
:1017C0006D51D8B420D0010E6027000E6123622332
:1017D000632363A118D060C068F061C069F062C083
:1017E0006AF063C06BF06B356B336A33693368330F
:1017F00068C060F069C061F06AC062F06BC063F0FD
:101800006E29D8A46E2B6E29D8B403D06E51D8A4FB
:101810000BD0000E606F000E616F000E626F000E45
:10182000636F6E51D8B46C6B6EA102D0628F01D021
:10183000629FD8906E31636F6CBF638F60C060F041
:1018400061C061F062C062F063C063F01200635176
:10185000800B706F63516325776F62BF778177511B
:10186000D8B40ED07729D8A408D0000E606F000E2F
:10187000616F000E626F000E636F628F636B08D042
:10188000000E606F000E616F000E626F000E636FDE
:101890006751800B701B67516725786F66BF788131
:1018A0007851D8B40ED07829D8A408D0000E646F2F
:1018B000000E656F000E666F000E676F668F676BB8
:1018C00008D0000E646F000E656F000E666F000E8C
:1018D000676F6451651166116711D8A417D0000EA7
:1018E000606F000E616F000E626F000E636F800EFE
:1018F00062137F0E63137051631360C060F061C0A8
:1019000061F062C062F063C063F012007751D8A446
:1019100009D0000E606F000E616F000E626F000E46
:10192000636F1200785177C068F0696B685F000ED2
:10193000695B7F0E6825716F000E6921726F60C050
:101940006CF061C06DF062C06EF063C06FF0000EAD
:10195000606F000E616F000E626F000E636F000E0D
:10196000736F000E746F000E756F000E766F786BDC
:1019700028D07851D8B411D0D8906C376D376E37E5
:101980006F37D890603761376237633776BF6081D1
:10199000D890733774377537763764516C5D6551FD
:1019A0006D5966516E5967516F59D8A009D0768D1F
:1019B00064516C5F65516D5B66516E5B67516F5B27
:1019C000782B190E7865D5D76C516D116E116F118A
:1019D000D8B411D073810FD0D89060376137623797
:1019E000633776BF6081D890733774377537763731
:1019F0007107D8A0720762AFEFD7786B76AF17D0B8
:101A0000FF0E7315686FFF0E7415696FFF0E751565
:101A10006A6F7F0E76156B6F685169116A116B11D1
:101A2000D8B403D0010E786F02D060B1FBD77851E3
:101A3000D8B41FD0010E6027000E612362236323F8
:101A400063A117D060C068F061C069F062C06AF03D
:101A500063C06BF06B356B336A336933683368C0CE
:101A600060F069C061F06AC062F06BC063F0714BF6
:101A7000722B72BF10D0725103E17129D8A00BD024
:101A8000000E726F7169000E606F000E616F000EC4
:101A9000626F000E636F72BF05D0725110E1710565
:101AA000D8B00DD0000E726F000E716F000E606F17
:101AB000000E616F000E626F000E636F706B71C07D
:101AC00077F077A102D0628F01D0629FD8907731F2
:101AD000636F11D7F951D8A407D00B0E386E410EA1
:101AE000376E0B0E366E1200F905D8A457D0000ED3
:101AF000726F000E736FC80E746F420E756FEAC07E
:101B00006EF0EBC06FF0ECC070F0EDC071F07BECEC
:101B100007F06EC087F06FC088F070C089F071C0A8
:101B20008AF09AEC12F087C032F088C033F032C0ED
:101B300060F033C061F0000E636F640E626F6CEC96
:101B400017F060C030F061C031F032C060F033C0D7
:101B500061F0000E636F640E626FFBEC15F060C005
:101B60002EF061C02FF02EC038F030C060F031C0D0
:101B700061F0000E636F0A0E626FFBEC15F06051AE
:101B8000376E30C060F031C061F0000E636F0A0E36
:101B9000626F6CEC17F06051366E1200020EF9198C
:101BA000D8A44DD0000E726F000E736FC80E746F04
:101BB000420E756FEAC06EF0EBC06FF0ECC070F0D3
:101BC000EDC071F07BEC07F06EC087F06FC088F05D
:101BD00070C089F071C08AF09AEC12F087C032F0C0
:101BE00088C033F032C060F033C061F0000E636F24
:101BF000640E626F6CEC17F060C030F061C031F0C1
:101C000032C060F033C061F0000E636F640E626F2B
:101C1000FBEC15F060C02EF061C02FF02EC038F044
:101C200030C060F031C061F0000E636F0A0E626F69
:101C3000FBEC15F06051376E430E366E1200030E4A
:101C4000F919D8A407D00B0E386E430E376E0B0E61
:101C5000366E1200040EF919D8A406D0530E386E51
:101C6000376A0B0E366E1200050EF919D8A407D08C
:101C7000530E386E010E376E0B0E366E1200060EC6
:101C8000F919D8A407D0530E386E020E376E0B0E1A
:101C9000366E1200070EF919D8A407D0430E386E1D
:101CA0004C0E376E720E366E120000001200F951A3
:101CB000D8A407D00B0E386E410E376E0B0E366E61
:101CC0001200F905D8A457D0000E056E000E066E5E
:101CD000C80E076E420E086EEAC001F0EBC002F0BB
:101CE000ECC003F0EDC004F00FEC09F001C01AF0F5
:101CF00002C01BF003C01CF004C01DF0F7EC12F092
:101D00001AC032F01BC033F032C001F033C002F011
:101D1000000E046E640E036E8DEC17F001C030F0FF
:101D200002C031F032C001F033C002F0000E046E88
:101D3000640E036E4DEC16F001C02EF002C02FF0C1
:101D40002EC038F030C001F031C002F0000E046E39
:101D50000A0E036E4DEC16F00150376E30C001F0E4
:101D600031C002F0000E046E0A0E036E8DEC17F007
:101D70000150366E1200020EF919D8A44DD0000E93
:101D8000056E000E066EC80E076E420E086EEAC0A3
:101D900001F0EBC002F0ECC003F0EDC004F00FEC7A
:101DA00009F001C01AF002C01BF003C01CF004C00F
:101DB0001DF0F7EC12F01AC032F01BC033F032C045
:101DC00001F033C002F0000E046E640E036E8DEC61
:101DD00017F001C030F002C031F032C001F033C062
:101DE00002F0000E046E640E036E4DEC16F001C09E
:101DF0002EF002C02FF02EC038F030C001F031C0FC
:101E000002F0000E046E0A0E036E4DEC16F0015047
:101E1000376E430E366E1200030EF919D8A407D0A0
:101E20000B0E386E430E376E0B0E366E1200040E1C
:101E3000F919D8A406D0530E386E376A0B0E366ED9
:101E40001200050EF919D8A407D0530E386E010EF2
:101E5000376E0B0E366E1200060EF919D8A407D095
:101E6000530E386E020E376E0B0E366E1200070ED2
:101E7000F919D8A407D0430E386E4C0E376E720E87
:101E8000366E120000001200E2C089F0E3C08AF052
:101E9000E4C08BF0E5C08CF079C089F07AC08AF09C
:101EA0007BC08BF07CC08CF0810E7D6FFF0E7E6F4F
:101EB00089C07FF08AC080F08BC081F08CC082F036
:101EC000180E05D0D8908233813380337F33E82ECB
:101ED000F9D77F517D25876F000E7E21886F88BFDF
:101EE0000FD0885104E1170E875DD8A009D079C0C2
:101EF00079F07AC07AF07BC07BF07CC07CF0120075
:101F000088BF5CD087C07DF0FF0E7E6FFF0E7F6FB5
:101F10007F0E806F000E816F7D6701D007D0813505
:101F2000813380337F337E337D2FF6D77EC083F0BD
:101F30007FC084F080C085F081C086F000018351AD
:101F400089157D6F84518A157E6F85518B157F6F42
:101F500086518C15806F7D517E117F118011D8B410
:101F6000C6D789C07DF08AC07EF08BC07FF08CC060
:101F700080F0200E05D0D89080337F337E337D33C0
:101F8000E82EF9D77D51D8B408D0835189278451E0
:101F90008A2385518B2386518C23831D7D6F841D5D
:101FA0007E6F851D7F6F861D806F7D5189177E51E5
:101FB0008A177F518B1780518C1732D089C07DF0E2
:101FC0008AC07EF08BC07FF08CC080F0200E05D0E0
:101FD000D89080337F337E337D33E82EF9D77D6709
:101FE00008D0000E896F000E8A6F000E8B6F000EF6
:101FF00016D0D89089357D6F8A357E6F8B357F6F8F
:102000008C35806F7D517E117F118011D8B408D03E
:10201000000E896F000E8A6F800E8B6FBF0E8C6F63
:1020200089C079F08AC07AF08BC07BF08CC07CF0DC
:102030001200CA51D96EDA6ADFCFF6FF030EF76ECF
:102040000800F550250AD8A496D0CA51D96EDA6A8C
:10205000DF2A000EEF6F000EEE6FEEC0F8F0F069B1
:10206000F169CA51D96EDA6ADFCFF6FF030EF76E57
:102070000800F5502E0AD8A410D0CA51D96EDA6AD9
:10208000DF2ACAC060F0CBC061F0CCC062F05DEC6A
:1020900014F060C0F0F061C0F1F0CA51D96EDA6A94
:1020A000DF50D36FD3C0F6FF030EF76E0800F5CFF5
:1020B000D2F007D0D32B10D06C0ED26F0DD0D26BD4
:1020C0000BD0D2514C0AD8B4F5D72A0AD8B4F4D7D9
:1020D0000A0AD8B4EFD7F3D7D3C0F6FF030EF76ED2
:1020E0000800F550660AD8B415D040D0CBC0D9FF4F
:1020F000CCC0DAFFDFCFCDF0040EDF26CD51D96E94
:10210000DA6ADECFCEF0DECFCFF0DECFD0F0DECF9A
:10211000D1F007D0D2514C0AD8B4E8D7200AD8B4AD
:10212000E5D7CA51D96EDA6AD329DF6E16D0C8C096
:1021300093F0C9C094F0CEC095F0CFC096F0D0C057
:1021400097F0D1C098F0D3C0F6FF030EF76E0800E9
:10215000F5CF99F090EC01F01200D3C0F6FF030E1A
:10216000F76E0800F550660AD8B4E1D7CA51D96EA7
:10217000DA6ADF2A1200CA51D96EDA6ADFCFF6FFB7
:10218000030EF76E0800F550606F616BC8C062F017
:10219000C9C063F0A5EC14F0E9D7686F000168517D
:1021A000D8A463AF1AD060C064F061C065F062C0AB
:1021B00066F063C067F0641F651F661F671F642BAE
:1021C000000E65236623672364C06AF065C06BF068
:1021D00066C06CF067C06DF008D060C06AF061C086
:1021E0006BF062C06CF063C06DF060516111621100
:1021F0006311D8A409D0000E606F000E616F000E4D
:10220000626F000E636F1200960E696F06D0692B25
:10221000D8906D336C336B336A33000E6A15646F7C
:10222000000E6B15656F000E6C15666FFE0E6D155A
:10223000676F6451651166116711D8B40DD0E7D787
:10224000692B010E6A27000E6B236C236D23D89037
:102250006D336C336B336A33000E6A15646F000E96
:102260006B15656F000E6C15666FFF0E6D15676F51
:102270006451651166116711D8B407D0E1D76907B9
:10228000D8906A376B376C376D376CBF03D0020E4E
:102290006961F5D769A16C9FD890693369C064F012
:1022A000656B666B676B64C067F0666B656B646BD0
:1022B00064516A1365516B1366516C1367516D134A
:1022C0006851D8A463AF01D06D8F6AC060F06BC055
:1022D00061F06CC062F06DC063F01200000E8715F3
:1022E0008F6F000E8815906F800E8915916F7F0E8D
:1022F0008A15926F8F51901191119211D8A408D024
:10230000000E876F000E886F000E896F000E8A6FB7
:10231000000E8B158F6F000E8C15906F800E8D1533
:10232000916F7F0E8E15926F8F51901191119211B6
:10233000D8A408D0000E8B6F000E8C6F000E8D6F2E
:10234000000E8E6F8AAF09D0876D881FD8B0882B9A
:10235000891FD8B0892B800E8A578EAF09D08B6D1C
:102360008C1FD8B08C2B8D1FD8B08D2B800E8E5724
:10237000000E871B000E881B000E891B800E8A1B17
:10238000000E8B1B000E8C1B000E8D1B800E8E1BF7
:102390008B51875D8C5188598D5189598E518A593D
:1023A000D8B002D0D8901200D8801200E6C06AF0EF
:1023B000E7C06BF0E8C06CF0E9C06DF060C06AF097
:1023C00061C06BF062C06CF063C06DF06AC064F015
:1023D0006BC065F06CC066F06DC067F0180E05D07C
:1023E000D8906733663365336433E82EF9D7645188
:1023F000686F696B68516911D8A419D0D8906A3593
:10240000646F6B35656F6C35666F6D35676F6451E2
:10241000651166116711D8A405D0000E616F020E18
:10242000606F1200000E616F030E606F120068296A
:102430006911D8A41CD06AC064F06BC065F06CC090
:1024400066F06DC067F0090ED8906437653766375F
:102450006737E82EF9D76451651166116711D8A462
:1024600002D0010E01D0000E606F616B1200000EF1
:10247000616F040E606F1200646F000E0001666FE2
:10248000000E656F65C062F064C063F0622B02D01D
:10249000D8906333622FFCD7010E00016317633BB2
:1024A000634782506319DF0B6319826E65C062F067
:1024B00060C063F0622B02D0D8906333622FFCD7E8
:1024C000010E00016317633B82506319EF0B631920
:1024D000826E65C062F061C063F0622B02D0D8905A
:1024E0006333622FFCD7010E000163176347634714
:1024F000634782506319F70B6319826E828C530E07
:10250000E82EFED70000829C530EE82EFED7000076
:102510000001654B662B66BFB5D7665104E1080E16
:10252000655DD8A0AFD7828E530EE82EFED700008F
:10253000829E120089358A35906F9051D8A409D0B7
:10254000000E876F000E886F000E896F000E8A6F75
:10255000120087C08BF088C08CF089C08DF08AC0D3
:102560008EF0200E05D0D8908E338D338C338B3384
:10257000E82EF9D78B518F6F898FFF0E8717FF0ECB
:102580008817FF0E8917000E8A17960E905F90AF7E
:102590000DD09051800A970FD8A0D2D7D8908A3307
:1025A000893388338733903FF9D70DD01F0E90655C
:1025B00007D0C6D7D8908737883789378A379007AA
:1025C0009051D8A4F7D78F51D8B408D08A1F891F4B
:1025D000881F876D000E882389238A2387C087F090
:1025E00088C088F089C089F08AC08AF012001C3443
:1025F0001D34236E2350D8A409D0000E1A6E000E8D
:102600001B6E000E1C6E000E1D6E12001AC01EF016
:102610001BC01FF01CC020F01DC021F0200E05D0F3
:10262000D890213220321F321E32E82EF9D71E50A8
:10263000226E1C8EFF0E1A16FF0E1B16FF0E1C16A6
:10264000000E1D16960E235E23AE0DD02350800A79
:10265000970FD8A0D2D7D8901D321C321B321A3215
:10266000233EF9D70DD01F0E236407D0C6D7D890CC
:102670001A361B361C361D3623062350D8A4F7D72E
:102680002250D8B408D01D1E1C1E1B1E1A6C000E32
:102690001B221C221D221AC01AF01BC01BF01CC0DA
:1026A0001CF01DC01DF012000001606F21D03F0E14
:1026B0001BD0060E19D05B0E17D04F0E15D0660E2C
:1026C00013D06D0E11D07D0E0FD0070E0DD07F0EE2
:1026D0000BD06F0E09D0790E07D0770E05D0390ECA
:1026E00003D0380E01D0310E616F35D0616B33D01D
:1026F00000016051000AD8B4DAD7010AD8B4D9D79A
:10270000030AD8B4D8D7010AD8B4D7D7070AD8B49F
:10271000D6D7010AD8B4D5D7030AD8B4D4D7010A7A
:10272000D8B4D3D70F0AD8B4D2D7010AD8B4D1D7E6
:10273000480AD8B4D2D7020AD8B4D1D70F0AD8B42D
:10274000D0D71F0AD8B4BDD70A0AD8B4C4D72B0A29
:10275000D8B4C9D7CBD761511200056E000E076EF1
:10276000000E066E06C003F005C004F0032A02D076
:10277000D8900432032EFCD7010E0416043A044606
:1027800082500418DF0B0418826E06C003F001C0EB
:1027900004F0032A02D0D8900432032EFCD7010E95
:1027A0000416043A82500418EF0B0418826E06C017
:1027B00003F002C004F0032A02D0D8900432032EA2
:1027C000FCD7010E04160446044604468250041841
:1027D000F70B0418826E828C530EE82EFED7000091
:1027E000829C530EE82EFED70000064A072A07BE39
:1027F000B9D7075004E1080E065CD8A0B3D7828E83
:10280000530EE82EFED70000829E1200016E21D0EA
:102810003F0E1BD0060E19D05B0E17D04F0E15D0F1
:10282000660E13D06D0E11D07D0E0FD0070E0DD099
:102830007F0E0BD06F0E09D0790E07D0770E05D022
:10284000390E03D0380E01D0310E026E34D0026A38
:1028500032D00150000AD8B4DBD7010AD8B4DAD795
:10286000030AD8B4D9D7010AD8B4D8D7070AD8B43C
:10287000D7D7010AD8B4D6D7030AD8B4D5D7010A16
:10288000D8B4D4D70F0AD8B4D3D7010AD8B4D2D782
:10289000480AD8B4D3D7020AD8B4D2D70F0AD8B4CA
:1028A000D1D71F0AD8B4BED70A0AD8B4C5D72B0AC5
:1028B000D8B4CAD7CCD702501200000E676F000EF2
:1028C000666F6051D96EDA6ADFCFF6FF030EF76EDE
:1028D0000800F5502A0AD8A425D06051D96EDA6ACA
:1028E000DF2A61C0D9FF62C0DAFF020EDF26DF5C9B
:1028F000D96EDA6ADECF66F0DECF67F021D00A0E3D
:102900006603F3CF63F0F4CF64F06703F3506427FA
:1029100065516325666F000E6421676F6051D96E43
:10292000DA6ADF2A6051D96EDA6ADFCFF6FF030E6A
:10293000F76E0800F550D00F656F090E6565DFD79B
:1029400066C060F067C061F0120062516311D8B4D4
:1029500004D062516311D8A404D06051A0EC18F0E7
:10296000120020EE09F06251D9266351DA22DE50BE
:10297000DE10D8B416D020EE09F06251D92663518A
:10298000DA2210EE02F06251E1266351E222DE50BB
:10299000E65CE650800A686FDE50800A6859D8B05D
:1029A000120020EE02F06251D9266351DA22DF5084
:1029B000646F62C0D9FF63C0DAFFDF506425D96E4F
:1029C000DA6A60C0DFFF20EE02F06251D92663515F
:1029D000DA22DE2A000EDD221200000E6015686F7A
:1029E000000E6115696F800E62156A6F7F0E6315A8
:1029F0006B6F685169116A116B11D8A408D0000E71
:102A0000606F000E616F000E626F000E636F000E4C
:102A10006415686F000E6515696F800E66156A6F24
:102A20007F0E67156B6F685169116A116B11D8A41D
:102A300008D0000E646F000E656F000E666F000E0A
:102A4000676F645160190AE16551611907E16651C8
:102A5000621904E167516319D8B402D0D89012000A
:102A6000D8801200000E666F000E656F1CD000014A
:102A700065516125636F66516221646F63C0F6FF23
:102A800064C0F7FFF86A020EF76403D00800F5503F
:102A900005D0F6CFE1FFF7CFE2FFE7507AEC18F070
:102AA0000001654B662B65516125636F665162219C
:102AB000646F63C0F6FF64C0F7FFF86A020EF76444
:102AC00003D00800F55005D0F6CFE1FFF7CFE2FFC5
:102AD000E7500009D8B41200CAD7000E076E000EE6
:102AE000066E1AD006500224046E07500320056EAD
:102AF00004C0F6FF05C0F7FFF86A020EF76403D0C2
:102B00000800F55005D0F6CFE1FFF7CFE2FFE75020
:102B100087EC18F0064A072A06500224046E075074
:102B20000320056E04C0F6FF05C0F7FFF86A020E29
:102B3000F76403D00800F55005D0F6CFE1FFF7CFDA
:102B4000E2FFE7500009D8B41200CCD775AF04D02B
:102B5000000E756F000E746F000E786F000E776FA9
:102B60000CD0000E616F200E606F70C062F071C0FB
:102B700063F0A5EC14F0774B782B7451775D7851A6
:102B8000800A766F7551800A7659D8A0EAD772C04C
:102B900069F073C06AF070C06BF071C06CF0CBEC80
:102BA00017F01200380EF66E310EF76E000EF86E4A
:102BB00000EE4AF010EE04F00900F5CFEEFFE5500C
:102BC000E150FAE101EE00F0500EEE6AE806FDE198
:102BD00000EEE2F01D0EEE6AE806FDE100EE2CF0DC
:102BE0001E0EEE6AE806FDE14E904E92000EF86E63
:102BF0000001B9EF05F0000E666F000E656F6251BF
:102C00006311D8B41CD0010E646F04D0D890623721
:102C10006337642B63AFFAD7D89065376637625154
:102C2000605D63516159D8A005D06251605F635106
:102C3000615B6581D89063336233642FEDD765C0E3
:102C400060F066C061F0120091EC18F0A00E71EC1B
:102C500018F062C060F063C061F099EC18F03D6E4E
:102C600062C060F063C061F09EEC18F03C6E3D50B5
:102C700071EC18F03C5071EC18F00001645171ECEB
:102C800018F08DEC18F0040E0001656F3D0EE82E73
:102C9000FED7652FFCD700D01200000E066E000E86
:102CA000056E03500410D8B41CD0010E076E04D07A
:102CB000D89003360436072A04AEFAD7D8900536E2
:102CC00006360350015C04500258D8A005D00350CA
:102CD000015E0450025A0580D89004320332072E58
:102CE000EDD705C001F006C002F0120062C060F02E
:102CF00063C061F099EC18F03D6E62C060F063C093
:102D000061F09EEC18F03C6E91EC18F0A00E71ECA6
:102D100018F03D5071EC18F03C5071EC18F095EC47
:102D200018F0A10E71EC18F0010E16EC18F000016D
:102D3000646F8DEC18F000016451120063BF09D07C
:102D400060C060F061C061F062C062F063C063F0B7
:102D5000120060C064F061C065F062C066F063C0DC
:102D600067F0641F651F661F671F642B000E6523D5
:102D70006623672364C060F065C061F066C062F0DE
:102D800067C063F01200000E8B1B000E8C1B000E40
:102D90008D1B800E8E1B87C060F088C061F089C0DB
:102DA00062F08AC063F08BC064F08CC065F08DC0A7
:102DB00066F08EC067F0A3EC0AF060C087F061C0D7
:102DC00088F062C089F063C08AF0120062C069F0C6
:102DD00063C06AF060C067F061C068F010D069C07D
:102DE000D9FF6AC0DAFFDF50666F694B6A2B67C094
:102DF000D9FF68C0DAFF66C0DFFF674B682B640746
:102E0000D8A065076429EBE16529D8B41200E7D79B
:102E1000385006EC14F03B6E3404D8A40BD00001FB
:102E2000F905D8B404D0020EF919D8A403D03B5048
:102E300080093B6E375006EC14F03A6E365006ECC3
:102E400014F0396E3AC001F039C002F03B50ADECDD
:102E500013F01200DC0E0101506FDAC051F1000EC8
:102E6000546F000E536F000E5B6F000E5A6F510EC1
:102E70000001D46F010ED56FDBC0D6F0500ED76FB6
:102E8000010ED86FAEEC17F0DA5101015325D96E5F
:102E9000DA6ADF6A1200385054EC13F03B6E3404E7
:102EA000D8A40AD0F905D8B404D0020EF919D8A4D0
:102EB00003D03B5080093B6E375054EC13F03A6E10
:102EC000365054EC13F0396E3AC060F039C061F0FE
:102ED0003B503CEC12F0120062516311D8B418D090
:102EE000010E646F04D0D89062376337642B63AFF0
:102EF000FAD76251605D63516159D8A004D0625124
:102F0000605F6351615BD89063336233642FF1D7A4
:102F100060C060F061C061F0120003500410D8B4CA
:102F200018D0010E056E04D0D89003360436052A59
:102F300004AEFAD70350015C04500258D8A004D064
:102F40000350015E0450025AD89004320332052E19
:102F5000F1D701C001F002C002F01200D6C0D9F0D2
:102F60000CD0D4C0C8F0D5C0C9F0D90ECA6FD7C034
:102F7000CBF0D8C0CCF019EC10F0D9C0F6FF030E9E
:102F8000F76E0800F5500009D8A4EBD7000ED56FF6
:102F9000000ED46F1200000E6F6F000E6E6F0BD01C
:102FA0006DC060F0616B6BC062F06CC063F0A5EC4B
:102FB00014F06E4B6F2B6E516925D96E6F516A21DB
:102FC000DA6EDF506D6F6D51D8B41200E9D760C072
:102FD00064F061C065F0622B6205636F63C0F6FF49
:102FE000030EF76E64C0D9FF65C0DAFF644B652B32
:102FF0000800F5CFDFFFDF50D8B41200ECD76051E6
:10300000611162116311D8B408D0000E601B000E6C
:10301000611B000E621B800E631B60C060F061C00C
:1030200061F062C062F063C063F012000001606F83
:10303000C586C7A0FED7C9CF3EF0000160B102D05F
:10304000C59A01D0C58AC588C5B8FED73E501200C2
:10305000B896B890B898B89E0C0EAF6EAC94AC9879
:10306000AC9CAB8EAC8AAB98AC96938E938A1200D4
:10307000010E0001FE6FC282C2B2FED7C450000131
:10308000606FC350F66F60C0F7F01200350ECD6E62
:10309000000ECF6E000ECE6E9E909D80000ECF6E05
:1030A000000ECE6E1200010EFE6FC282C2B2FED7BB
:1030B000C450016EC350F66F01C0F7F01200938840
:1030C000938C280EC66E040EC86EC76AC56A1200BD
:1030D000F18AF188F086F088F09CF09EF090F092F2
:1030E00012000001606F60C0C9FFC7B0FED7C5AC59
:1030F0001200FDD70001606FACA2FED760C0ADFF2B
:103100001200C16A0D0EC26EAF0EC06E1200016ECB
:10311000ACA2FED701C0ADFF1200C584C5A4120049
:10312000FDD7C580C5A01200FDD7C582C5A212007B
:10313000FDD70001605112000A28A03B6151120026
:0231400012007B
:020000040030CA
:0E00000000E81F1EFF8881FF03C003E00340DD
:00000001FF
